{
  "address": "0x86fbff0a89eDD4A1D67fEfDa471cEbC05Ea86c14",
  "abi": [
    {
      "inputs": [
        {
          "internalType": "string",
          "name": "contractUri",
          "type": "string"
        }
      ],
      "stateMutability": "nonpayable",
      "type": "constructor"
    },
    {
      "anonymous": false,
      "inputs": [
        {
          "indexed": true,
          "internalType": "address",
          "name": "account",
          "type": "address"
        },
        {
          "indexed": true,
          "internalType": "address",
          "name": "operator",
          "type": "address"
        },
        {
          "indexed": false,
          "internalType": "bool",
          "name": "approved",
          "type": "bool"
        }
      ],
      "name": "ApprovalForAll",
      "type": "event"
    },
    {
      "anonymous": false,
      "inputs": [
        {
          "indexed": true,
          "internalType": "bytes32",
          "name": "role",
          "type": "bytes32"
        },
        {
          "indexed": true,
          "internalType": "bytes32",
          "name": "previousAdminRole",
          "type": "bytes32"
        },
        {
          "indexed": true,
          "internalType": "bytes32",
          "name": "newAdminRole",
          "type": "bytes32"
        }
      ],
      "name": "RoleAdminChanged",
      "type": "event"
    },
    {
      "anonymous": false,
      "inputs": [
        {
          "indexed": true,
          "internalType": "bytes32",
          "name": "role",
          "type": "bytes32"
        },
        {
          "indexed": true,
          "internalType": "address",
          "name": "account",
          "type": "address"
        },
        {
          "indexed": true,
          "internalType": "address",
          "name": "sender",
          "type": "address"
        }
      ],
      "name": "RoleGranted",
      "type": "event"
    },
    {
      "anonymous": false,
      "inputs": [
        {
          "indexed": true,
          "internalType": "bytes32",
          "name": "role",
          "type": "bytes32"
        },
        {
          "indexed": true,
          "internalType": "address",
          "name": "account",
          "type": "address"
        },
        {
          "indexed": true,
          "internalType": "address",
          "name": "sender",
          "type": "address"
        }
      ],
      "name": "RoleRevoked",
      "type": "event"
    },
    {
      "anonymous": false,
      "inputs": [
        {
          "indexed": true,
          "internalType": "address",
          "name": "operator",
          "type": "address"
        },
        {
          "indexed": true,
          "internalType": "address",
          "name": "from",
          "type": "address"
        },
        {
          "indexed": true,
          "internalType": "address",
          "name": "to",
          "type": "address"
        },
        {
          "indexed": false,
          "internalType": "uint256[]",
          "name": "ids",
          "type": "uint256[]"
        },
        {
          "indexed": false,
          "internalType": "uint256[]",
          "name": "values",
          "type": "uint256[]"
        }
      ],
      "name": "TransferBatch",
      "type": "event"
    },
    {
      "anonymous": false,
      "inputs": [
        {
          "indexed": true,
          "internalType": "address",
          "name": "operator",
          "type": "address"
        },
        {
          "indexed": true,
          "internalType": "address",
          "name": "from",
          "type": "address"
        },
        {
          "indexed": true,
          "internalType": "address",
          "name": "to",
          "type": "address"
        },
        {
          "indexed": false,
          "internalType": "uint256",
          "name": "id",
          "type": "uint256"
        },
        {
          "indexed": false,
          "internalType": "uint256",
          "name": "value",
          "type": "uint256"
        }
      ],
      "name": "TransferSingle",
      "type": "event"
    },
    {
      "anonymous": false,
      "inputs": [
        {
          "indexed": false,
          "internalType": "string",
          "name": "value",
          "type": "string"
        },
        {
          "indexed": true,
          "internalType": "uint256",
          "name": "id",
          "type": "uint256"
        }
      ],
      "name": "URI",
      "type": "event"
    },
    {
      "anonymous": false,
      "inputs": [
        {
          "indexed": false,
          "internalType": "address",
          "name": "creator",
          "type": "address"
        },
        {
          "indexed": false,
          "internalType": "uint256",
          "name": "amount",
          "type": "uint256"
        },
        {
          "indexed": false,
          "internalType": "uint256",
          "name": "id",
          "type": "uint256"
        }
      ],
      "name": "burnNFT",
      "type": "event"
    },
    {
      "anonymous": false,
      "inputs": [
        {
          "indexed": false,
          "internalType": "address",
          "name": "creator",
          "type": "address"
        },
        {
          "indexed": false,
          "internalType": "uint256",
          "name": "amount",
          "type": "uint256"
        },
        {
          "indexed": false,
          "internalType": "uint256",
          "name": "id",
          "type": "uint256"
        }
      ],
      "name": "newNFT",
      "type": "event"
    },
    {
      "inputs": [],
      "name": "DEFAULT_ADMIN_ROLE",
      "outputs": [
        {
          "internalType": "bytes32",
          "name": "",
          "type": "bytes32"
        }
      ],
      "stateMutability": "view",
      "type": "function"
    },
    {
      "inputs": [
        {
          "internalType": "address",
          "name": "account",
          "type": "address"
        },
        {
          "internalType": "uint256",
          "name": "id",
          "type": "uint256"
        }
      ],
      "name": "balanceOf",
      "outputs": [
        {
          "internalType": "uint256",
          "name": "",
          "type": "uint256"
        }
      ],
      "stateMutability": "view",
      "type": "function"
    },
    {
      "inputs": [
        {
          "internalType": "address[]",
          "name": "accounts",
          "type": "address[]"
        },
        {
          "internalType": "uint256[]",
          "name": "ids",
          "type": "uint256[]"
        }
      ],
      "name": "balanceOfBatch",
      "outputs": [
        {
          "internalType": "uint256[]",
          "name": "",
          "type": "uint256[]"
        }
      ],
      "stateMutability": "view",
      "type": "function"
    },
    {
      "inputs": [
        {
          "internalType": "address",
          "name": "account",
          "type": "address"
        },
        {
          "internalType": "uint256",
          "name": "id",
          "type": "uint256"
        },
        {
          "internalType": "uint256",
          "name": "value",
          "type": "uint256"
        }
      ],
      "name": "burn",
      "outputs": [],
      "stateMutability": "nonpayable",
      "type": "function"
    },
    {
      "inputs": [
        {
          "internalType": "address",
          "name": "account",
          "type": "address"
        },
        {
          "internalType": "uint256[]",
          "name": "ids",
          "type": "uint256[]"
        },
        {
          "internalType": "uint256[]",
          "name": "values",
          "type": "uint256[]"
        }
      ],
      "name": "burnBatch",
      "outputs": [],
      "stateMutability": "nonpayable",
      "type": "function"
    },
    {
      "inputs": [
        {
          "internalType": "address",
          "name": "_owner",
          "type": "address"
        },
        {
          "internalType": "uint256",
          "name": "tokenId",
          "type": "uint256"
        },
        {
          "internalType": "uint256",
          "name": "amount",
          "type": "uint256"
        }
      ],
      "name": "burnIt",
      "outputs": [],
      "stateMutability": "nonpayable",
      "type": "function"
    },
    {
      "inputs": [],
      "name": "contractURI",
      "outputs": [
        {
          "internalType": "string",
          "name": "",
          "type": "string"
        }
      ],
      "stateMutability": "view",
      "type": "function"
    },
    {
      "inputs": [
        {
          "internalType": "uint256",
          "name": "tokenId",
          "type": "uint256"
        }
      ],
      "name": "getOwnerContent",
      "outputs": [
        {
          "internalType": "string",
          "name": "",
          "type": "string"
        }
      ],
      "stateMutability": "view",
      "type": "function"
    },
    {
      "inputs": [
        {
          "internalType": "bytes32",
          "name": "role",
          "type": "bytes32"
        }
      ],
      "name": "getRoleAdmin",
      "outputs": [
        {
          "internalType": "bytes32",
          "name": "",
          "type": "bytes32"
        }
      ],
      "stateMutability": "view",
      "type": "function"
    },
    {
      "inputs": [
        {
          "internalType": "uint256",
          "name": "tokenId",
          "type": "uint256"
        }
      ],
      "name": "getTokenData",
      "outputs": [
        {
          "components": [
            {
              "internalType": "address",
              "name": "creator",
              "type": "address"
            },
            {
              "internalType": "uint256",
              "name": "royalty",
              "type": "uint256"
            }
          ],
          "internalType": "struct NFTSPORT.tokenData",
          "name": "",
          "type": "tuple"
        }
      ],
      "stateMutability": "view",
      "type": "function"
    },
    {
      "inputs": [
        {
          "internalType": "bytes32",
          "name": "role",
          "type": "bytes32"
        },
        {
          "internalType": "address",
          "name": "account",
          "type": "address"
        }
      ],
      "name": "grantRole",
      "outputs": [],
      "stateMutability": "nonpayable",
      "type": "function"
    },
    {
      "inputs": [
        {
          "internalType": "bytes32",
          "name": "role",
          "type": "bytes32"
        },
        {
          "internalType": "address",
          "name": "account",
          "type": "address"
        }
      ],
      "name": "hasRole",
      "outputs": [
        {
          "internalType": "bool",
          "name": "",
          "type": "bool"
        }
      ],
      "stateMutability": "view",
      "type": "function"
    },
    {
      "inputs": [],
      "name": "id",
      "outputs": [
        {
          "internalType": "uint256",
          "name": "",
          "type": "uint256"
        }
      ],
      "stateMutability": "view",
      "type": "function"
    },
    {
      "inputs": [
        {
          "internalType": "uint256",
          "name": "",
          "type": "uint256"
        }
      ],
      "name": "ipfsHashes",
      "outputs": [
        {
          "internalType": "string",
          "name": "",
          "type": "string"
        }
      ],
      "stateMutability": "view",
      "type": "function"
    },
    {
      "inputs": [
        {
          "internalType": "address",
          "name": "account",
          "type": "address"
        },
        {
          "internalType": "address",
          "name": "operator",
          "type": "address"
        }
      ],
      "name": "isApprovedForAll",
      "outputs": [
        {
          "internalType": "bool",
          "name": "",
          "type": "bool"
        }
      ],
      "stateMutability": "view",
      "type": "function"
    },
    {
      "inputs": [
        {
          "internalType": "address",
          "name": "_owner",
          "type": "address"
        },
        {
          "internalType": "uint256",
          "name": "amount",
          "type": "uint256"
        },
        {
          "internalType": "uint256",
          "name": "royalty",
          "type": "uint256"
        },
        {
          "internalType": "string",
          "name": "ownerContent",
          "type": "string"
        },
        {
          "internalType": "string",
          "name": "ipfshash",
          "type": "string"
        }
      ],
      "name": "mintNew",
      "outputs": [
        {
          "internalType": "uint256",
          "name": "",
          "type": "uint256"
        }
      ],
      "stateMutability": "nonpayable",
      "type": "function"
    },
    {
      "inputs": [
        {
          "internalType": "bytes32",
          "name": "role",
          "type": "bytes32"
        },
        {
          "internalType": "address",
          "name": "account",
          "type": "address"
        }
      ],
      "name": "renounceRole",
      "outputs": [],
      "stateMutability": "nonpayable",
      "type": "function"
    },
    {
      "inputs": [
        {
          "internalType": "bytes32",
          "name": "role",
          "type": "bytes32"
        },
        {
          "internalType": "address",
          "name": "account",
          "type": "address"
        }
      ],
      "name": "revokeRole",
      "outputs": [],
      "stateMutability": "nonpayable",
      "type": "function"
    },
    {
      "inputs": [
        {
          "internalType": "address",
          "name": "from",
          "type": "address"
        },
        {
          "internalType": "address",
          "name": "to",
          "type": "address"
        },
        {
          "internalType": "uint256[]",
          "name": "ids",
          "type": "uint256[]"
        },
        {
          "internalType": "uint256[]",
          "name": "amounts",
          "type": "uint256[]"
        },
        {
          "internalType": "bytes",
          "name": "data",
          "type": "bytes"
        }
      ],
      "name": "safeBatchTransferFrom",
      "outputs": [],
      "stateMutability": "nonpayable",
      "type": "function"
    },
    {
      "inputs": [
        {
          "internalType": "address",
          "name": "from",
          "type": "address"
        },
        {
          "internalType": "address",
          "name": "to",
          "type": "address"
        },
        {
          "internalType": "uint256",
          "name": "id",
          "type": "uint256"
        },
        {
          "internalType": "uint256",
          "name": "amount",
          "type": "uint256"
        },
        {
          "internalType": "bytes",
          "name": "data",
          "type": "bytes"
        }
      ],
      "name": "safeTransferFrom",
      "outputs": [],
      "stateMutability": "nonpayable",
      "type": "function"
    },
    {
      "inputs": [
        {
          "internalType": "address",
          "name": "operator",
          "type": "address"
        },
        {
          "internalType": "bool",
          "name": "approved",
          "type": "bool"
        }
      ],
      "name": "setApprovalForAll",
      "outputs": [],
      "stateMutability": "nonpayable",
      "type": "function"
    },
    {
      "inputs": [
        {
          "internalType": "bytes4",
          "name": "interfaceId",
          "type": "bytes4"
        }
      ],
      "name": "supportsInterface",
      "outputs": [
        {
          "internalType": "bool",
          "name": "",
          "type": "bool"
        }
      ],
      "stateMutability": "view",
      "type": "function"
    },
    {
      "inputs": [
        {
          "internalType": "uint256",
          "name": "",
          "type": "uint256"
        }
      ],
      "name": "tokenDatas",
      "outputs": [
        {
          "internalType": "address",
          "name": "creator",
          "type": "address"
        },
        {
          "internalType": "uint256",
          "name": "royalty",
          "type": "uint256"
        }
      ],
      "stateMutability": "view",
      "type": "function"
    },
    {
      "inputs": [
        {
          "internalType": "uint256",
          "name": "",
          "type": "uint256"
        }
      ],
      "name": "uri",
      "outputs": [
        {
          "internalType": "string",
          "name": "",
          "type": "string"
        }
      ],
      "stateMutability": "view",
      "type": "function"
    }
  ],
  "transactionHash": "0x69cd8d6140277697553465f349707287ace725ab05108afa031a95ede609264f",
  "args": [
    "Loquesea"
  ],
  "numDeployments": 1,
  "solcInputHash": "f7b3084f4916780c35d5e38fd15926f0",
  "bytecode": "0x608060405260016004553480156200001657600080fd5b50604051620029163803806200291683398101604081905262000039916200023b565b6040805160208101909152600081526200005381620000d3565b5062000061600033620000ec565b60408051808201909152600780825266697066733a2f2f60c81b6020909201918252620000919160059162000195565b5080604051602001620000a59190620002f3565b60405160208183030381529060405260069080519060200190620000cb92919062000195565b5050620003aa565b8051620000e890600390602084019062000195565b5050565b6000828152602081815260408083206001600160a01b0385168452909152902054620000e8908390839060ff16620000e8576000828152602081815260408083206001600160a01b03851684529091529020805460ff19166001179055620001513390565b6001600160a01b0316816001600160a01b0316837f2f8788117e7eff1d82e926ec794901d17c78024a50270940304540a733656f0d60405160405180910390a45050565b828054620001a39062000357565b90600052602060002090601f016020900481019282620001c7576000855562000212565b82601f10620001e257805160ff191683800117855562000212565b8280016001018555821562000212579182015b8281111562000212578251825591602001919060010190620001f5565b506200022092915062000224565b5090565b5b8082111562000220576000815560010162000225565b6000602082840312156200024e57600080fd5b81516001600160401b03808211156200026657600080fd5b818401915084601f8301126200027b57600080fd5b81518181111562000290576200029062000394565b604051601f8201601f19908116603f01168101908382118183101715620002bb57620002bb62000394565b81604052828152876020848701011115620002d557600080fd5b620002e883602083016020880162000324565b979650505050505050565b66697066733a2f2f60c81b8152600082516200031781600785016020870162000324565b9190910160070192915050565b60005b838110156200034157818101518382015260200162000327565b8381111562000351576000848401525b50505050565b600181811c908216806200036c57607f821691505b602082108114156200038e57634e487b7160e01b600052602260045260246000fd5b50919050565b634e487b7160e01b600052604160045260246000fd5b61255c80620003ba6000396000f3fe608060405234801561001057600080fd5b50600436106101575760003560e01c8063a217fddf116100c3578063da0063411161007c578063da00634114610391578063e8a3d485146103a4578063e985e9c5146103ac578063f242432a146103e8578063f5298aca146103fb578063f701ce4e1461040e57600080fd5b8063a217fddf146102ce578063a22cb465146102d6578063a4de2f5c146102e9578063af640d0f146102fc578063b09afec114610305578063d547741f1461037e57600080fd5b806336568abe1161011557806336568abe146102105780634e1273f41461022357806367968058146102435780636b20c454146102565780636fc37a751461026957806391d14854146102bb57600080fd5b8062fdd58e1461015c57806301ffc9a7146101825780630e89341c146101a5578063248a9ca3146101c55780632eb2c2d6146101e85780632f2ff15d146101fd575b600080fd5b61016f61016a366004611d2d565b610421565b6040519081526020015b60405180910390f35b610195610190366004611eef565b6104b9565b6040519015158152602001610179565b6101b86101b3366004611eb3565b6104ff565b60405161017991906120e9565b61016f6101d3366004611eb3565b60009081526020819052604090206001015490565b6101fb6101f6366004611b6e565b610593565b005b6101fb61020b366004611ecc565b6105ce565b6101fb61021e366004611ecc565b6105f8565b610236610231366004611de2565b610676565b60405161017991906120a8565b61016f610251366004611d8a565b6107a0565b6101fb610264366004611c7d565b610914565b61029c610277366004611eb3565b600860205260009081526040902080546001909101546001600160a01b039091169082565b604080516001600160a01b039093168352602083019190915201610179565b6101956102c9366004611ecc565b610968565b61016f600081565b6101fb6102e4366004611cf1565b610991565b6101b86102f7366004611eb3565b61099c565b61016f60045481565b61035a610313366004611eb3565b604080518082019091526000808252602082015250600090815260086020908152604091829020825180840190935280546001600160a01b03168352600101549082015290565b6040805182516001600160a01b031681526020928301519281019290925201610179565b6101fb61038c366004611ecc565b610a36565b6101b861039f366004611eb3565b610a5b565b6101b8610ac5565b6101956103ba366004611b3b565b6001600160a01b03918216600090815260026020908152604080832093909416825291909152205460ff1690565b6101fb6103f6366004611c18565b610b57565b6101fb610409366004611d57565b610b8b565b6101fb61041c366004611d57565b610bdf565b60006001600160a01b0383166104915760405162461bcd60e51b815260206004820152602a60248201527f455243313135353a2061646472657373207a65726f206973206e6f742061207660448201526930b634b21037bbb732b960b11b60648201526084015b60405180910390fd5b5060009081526001602090815260408083206001600160a01b03949094168352929052205490565b60006001600160e01b03198216636cdb3d1360e11b14806104ea57506001600160e01b031982166303a24d0760e21b145b806104f957506104f982610c88565b92915050565b60606003805461050e906123a5565b80601f016020809104026020016040519081016040528092919081815260200182805461053a906123a5565b80156105875780601f1061055c57610100808354040283529160200191610587565b820191906000526020600020905b81548152906001019060200180831161056a57829003601f168201915b50505050509050919050565b61059e600033610968565b6105ba5760405162461bcd60e51b815260040161048890612188565b6105c78585858585610cbd565b5050505050565b6000828152602081905260409020600101546105e981610e5c565b6105f38383610e69565b505050565b6001600160a01b03811633146106685760405162461bcd60e51b815260206004820152602f60248201527f416363657373436f6e74726f6c3a2063616e206f6e6c792072656e6f756e636560448201526e103937b632b9903337b91039b2b63360891b6064820152608401610488565b6106728282610eed565b5050565b606081518351146106db5760405162461bcd60e51b815260206004820152602960248201527f455243313135353a206163636f756e747320616e6420696473206c656e677468604482015268040dad2e6dac2e8c6d60bb1b6064820152608401610488565b6000835167ffffffffffffffff8111156106f7576106f7612454565b604051908082528060200260200182016040528015610720578160200160208202803683370190505b50905060005b84518110156107985761076b8582815181106107445761074461243e565b602002602001015185838151811061075e5761075e61243e565b6020026020010151610421565b82828151811061077d5761077d61243e565b60209081029190910101526107918161240d565b9050610726565b509392505050565b60006107ac8133610968565b6107f05760405162461bcd60e51b81526020600482015260156024820152744f6e6c79206f776e65722063616e2061636365737360581b6044820152606401610488565b61080d866004548760405180602001604052806000815250610f52565b6004546000908152600760209081526040909120835161082f9285019061199b565b506040805180820182526001600160a01b038881168252602080830188815260048054600090815260088452868120955186546001600160a01b0319169516949094178555905160019094019390935591548152600982529190912084516108999286019061199b565b50600454604080516001600160a01b03891681526020810188905280820192909252517f738d754d9e4ed63efb97cec47b56299361b8fd39cd676286fbe4794172cbe7d79181900360600190a1600480549060006108f68361240d565b9190505550600160045461090a919061234b565b9695505050505050565b6001600160a01b038316331480610930575061093083336103ba565b806109415750610941600033610968565b61095d5760405162461bcd60e51b815260040161048890612188565b6105f3838383611068565b6000918252602082815260408084206001600160a01b0393909316845291905290205460ff1690565b6106723383836111f7565b600760205260009081526040902080546109b5906123a5565b80601f01602080910402602001604051908101604052809291908181526020018280546109e1906123a5565b8015610a2e5780601f10610a0357610100808354040283529160200191610a2e565b820191906000526020600020905b815481529060010190602001808311610a1157829003601f168201915b505050505081565b600082815260208190526040902060010154610a5181610e5c565b6105f38383610eed565b60606000610a693384610421565b11610aac5760405162461bcd60e51b8152602060048201526013602482015272596f7520646f6e74206f776e20746f6b656e7360681b6044820152606401610488565b6000828152600960205260409020805461050e906123a5565b606060068054610ad4906123a5565b80601f0160208091040260200160405190810160405280929190818152602001828054610b00906123a5565b8015610b4d5780601f10610b2257610100808354040283529160200191610b4d565b820191906000526020600020905b815481529060010190602001808311610b3057829003601f168201915b5050505050905090565b610b62600033610968565b610b7e5760405162461bcd60e51b815260040161048890612188565b6105c785858585856112d8565b6001600160a01b038316331480610ba75750610ba783336103ba565b80610bb85750610bb8600033610968565b610bd45760405162461bcd60e51b815260040161048890612188565b6105f3838383611406565b610bea600033610968565b610c2e5760405162461bcd60e51b81526020600482015260156024820152744f6e6c79206f776e65722063616e2061636365737360581b6044820152606401610488565b610c39838383610b8b565b604080516001600160a01b0385168152602081018390529081018390527f1cc509fd6d94910dd0d5d3f822c08fc79ca13c4324eda49ceffd7fdcf99ddb049060600160405180910390a1505050565b60006001600160e01b03198216637965db0b60e01b14806104f957506301ffc9a760e01b6001600160e01b03198316146104f9565b8151835114610cde5760405162461bcd60e51b8152600401610488906122a8565b6001600160a01b038416610d045760405162461bcd60e51b8152600401610488906121d6565b3360005b8451811015610dee576000858281518110610d2557610d2561243e565b602002602001015190506000858381518110610d4357610d4361243e565b60209081029190910181015160008481526001835260408082206001600160a01b038e168352909352919091205490915081811015610d945760405162461bcd60e51b81526004016104889061225e565b60008381526001602090815260408083206001600160a01b038e8116855292528083208585039055908b16825281208054849290610dd3908490612314565b9250508190555050505080610de79061240d565b9050610d08565b50846001600160a01b0316866001600160a01b0316826001600160a01b03167f4a39dc06d4c0dbc64b70af90fd698a233a518aa5d07e595d983b8c0526c8f7fb8787604051610e3e9291906120bb565b60405180910390a4610e5481878787878761150d565b505050505050565b610e668133611678565b50565b610e738282610968565b610672576000828152602081815260408083206001600160a01b03851684529091529020805460ff19166001179055610ea93390565b6001600160a01b0316816001600160a01b0316837f2f8788117e7eff1d82e926ec794901d17c78024a50270940304540a733656f0d60405160405180910390a45050565b610ef78282610968565b15610672576000828152602081815260408083206001600160a01b0385168085529252808320805460ff1916905551339285917ff6391f5c32d9c69d2a47ea670b442974b53935d1edc7fd64eb21e047a839171b9190a45050565b6001600160a01b038416610fb25760405162461bcd60e51b815260206004820152602160248201527f455243313135353a206d696e7420746f20746865207a65726f206164647265736044820152607360f81b6064820152608401610488565b336000610fbe856116d1565b90506000610fcb856116d1565b905060008681526001602090815260408083206001600160a01b038b16845290915281208054879290610fff908490612314565b909155505060408051878152602081018790526001600160a01b03808a1692600092918716917fc3d58168c5ae7397731d063d5bbf3d657854427343f4c083240f7aacaa2d0f62910160405180910390a461105f8360008989898961171c565b50505050505050565b6001600160a01b03831661108e5760405162461bcd60e51b81526004016104889061221b565b80518251146110af5760405162461bcd60e51b8152600401610488906122a8565b604080516020810190915260009081905233905b83518110156111885760008482815181106110e0576110e061243e565b6020026020010151905060008483815181106110fe576110fe61243e565b60209081029190910181015160008481526001835260408082206001600160a01b038c16835290935291909120549091508181101561114f5760405162461bcd60e51b815260040161048890612144565b60009283526001602090815260408085206001600160a01b038b16865290915290922091039055806111808161240d565b9150506110c3565b5060006001600160a01b0316846001600160a01b0316826001600160a01b03167f4a39dc06d4c0dbc64b70af90fd698a233a518aa5d07e595d983b8c0526c8f7fb86866040516111d99291906120bb565b60405180910390a46040805160208101909152600090525b50505050565b816001600160a01b0316836001600160a01b0316141561126b5760405162461bcd60e51b815260206004820152602960248201527f455243313135353a2073657474696e6720617070726f76616c20737461747573604482015268103337b91039b2b63360b91b6064820152608401610488565b6001600160a01b03838116600081815260026020908152604080832094871680845294825291829020805460ff191686151590811790915591519182527f17307eab39ab6107e8899845ad3d59bd9653f200f220920489ca2b5937696c31910160405180910390a3505050565b6001600160a01b0384166112fe5760405162461bcd60e51b8152600401610488906121d6565b33600061130a856116d1565b90506000611317856116d1565b905060008681526001602090815260408083206001600160a01b038c1684529091529020548581101561135c5760405162461bcd60e51b81526004016104889061225e565b60008781526001602090815260408083206001600160a01b038d8116855292528083208985039055908a1682528120805488929061139b908490612314565b909155505060408051888152602081018890526001600160a01b03808b16928c821692918816917fc3d58168c5ae7397731d063d5bbf3d657854427343f4c083240f7aacaa2d0f62910160405180910390a46113fb848a8a8a8a8a61171c565b505050505050505050565b6001600160a01b03831661142c5760405162461bcd60e51b81526004016104889061221b565b336000611438846116d1565b90506000611445846116d1565b6040805160208082018352600091829052888252600181528282206001600160a01b038b16835290522054909150848110156114935760405162461bcd60e51b815260040161048890612144565b60008681526001602090815260408083206001600160a01b038b81168086529184528285208a8703905582518b81529384018a90529092908816917fc3d58168c5ae7397731d063d5bbf3d657854427343f4c083240f7aacaa2d0f62910160405180910390a460408051602081019091526000905261105f565b6001600160a01b0384163b15610e545760405163bc197c8160e01b81526001600160a01b0385169063bc197c81906115519089908990889088908890600401612005565b602060405180830381600087803b15801561156b57600080fd5b505af192505050801561159b575060408051601f3d908101601f1916820190925261159891810190611f0c565b60015b611648576115a761246a565b806308c379a014156115e157506115bc612486565b806115c757506115e3565b8060405162461bcd60e51b815260040161048891906120e9565b505b60405162461bcd60e51b815260206004820152603460248201527f455243313135353a207472616e7366657220746f206e6f6e2d455243313135356044820152732932b1b2b4bb32b91034b6b83632b6b2b73a32b960611b6064820152608401610488565b6001600160e01b0319811663bc197c8160e01b1461105f5760405162461bcd60e51b8152600401610488906120fc565b6116828282610968565b6106725761168f816117e6565b61169a8360206117f8565b6040516020016116ab929190611f90565b60408051601f198184030181529082905262461bcd60e51b8252610488916004016120e9565b6040805160018082528183019092526060916000919060208083019080368337019050509050828160008151811061170b5761170b61243e565b602090810291909101015292915050565b6001600160a01b0384163b15610e545760405163f23a6e6160e01b81526001600160a01b0385169063f23a6e61906117609089908990889088908890600401612063565b602060405180830381600087803b15801561177a57600080fd5b505af19250505080156117aa575060408051601f3d908101601f191682019092526117a791810190611f0c565b60015b6117b6576115a761246a565b6001600160e01b0319811663f23a6e6160e01b1461105f5760405162461bcd60e51b8152600401610488906120fc565b60606104f96001600160a01b03831660145b6060600061180783600261232c565b611812906002612314565b67ffffffffffffffff81111561182a5761182a612454565b6040519080825280601f01601f191660200182016040528015611854576020820181803683370190505b509050600360fc1b8160008151811061186f5761186f61243e565b60200101906001600160f81b031916908160001a905350600f60fb1b8160018151811061189e5761189e61243e565b60200101906001600160f81b031916908160001a90535060006118c284600261232c565b6118cd906001612314565b90505b6001811115611945576f181899199a1a9b1b9c1cb0b131b232b360811b85600f16601081106119015761190161243e565b1a60f81b8282815181106119175761191761243e565b60200101906001600160f81b031916908160001a90535060049490941c9361193e8161238e565b90506118d0565b5083156119945760405162461bcd60e51b815260206004820181905260248201527f537472696e67733a20686578206c656e67746820696e73756666696369656e746044820152606401610488565b9392505050565b8280546119a7906123a5565b90600052602060002090601f0160209004810192826119c95760008555611a0f565b82601f106119e257805160ff1916838001178555611a0f565b82800160010185558215611a0f579182015b82811115611a0f5782518255916020019190600101906119f4565b50611a1b929150611a1f565b5090565b5b80821115611a1b5760008155600101611a20565b80356001600160a01b0381168114611a4b57600080fd5b919050565b600082601f830112611a6157600080fd5b81356020611a6e826122f0565b604051611a7b82826123e0565b8381528281019150858301600585901b87018401881015611a9b57600080fd5b60005b85811015611aba57813584529284019290840190600101611a9e565b5090979650505050505050565b600082601f830112611ad857600080fd5b813567ffffffffffffffff811115611af257611af2612454565b604051611b09601f8301601f1916602001826123e0565b818152846020838601011115611b1e57600080fd5b816020850160208301376000918101602001919091529392505050565b60008060408385031215611b4e57600080fd5b611b5783611a34565b9150611b6560208401611a34565b90509250929050565b600080600080600060a08688031215611b8657600080fd5b611b8f86611a34565b9450611b9d60208701611a34565b9350604086013567ffffffffffffffff80821115611bba57600080fd5b611bc689838a01611a50565b94506060880135915080821115611bdc57600080fd5b611be889838a01611a50565b93506080880135915080821115611bfe57600080fd5b50611c0b88828901611ac7565b9150509295509295909350565b600080600080600060a08688031215611c3057600080fd5b611c3986611a34565b9450611c4760208701611a34565b93506040860135925060608601359150608086013567ffffffffffffffff811115611c7157600080fd5b611c0b88828901611ac7565b600080600060608486031215611c9257600080fd5b611c9b84611a34565b9250602084013567ffffffffffffffff80821115611cb857600080fd5b611cc487838801611a50565b93506040860135915080821115611cda57600080fd5b50611ce786828701611a50565b9150509250925092565b60008060408385031215611d0457600080fd5b611d0d83611a34565b915060208301358015158114611d2257600080fd5b809150509250929050565b60008060408385031215611d4057600080fd5b611d4983611a34565b946020939093013593505050565b600080600060608486031215611d6c57600080fd5b611d7584611a34565b95602085013595506040909401359392505050565b600080600080600060a08688031215611da257600080fd5b611dab86611a34565b94506020860135935060408601359250606086013567ffffffffffffffff80821115611dd657600080fd5b611be889838a01611ac7565b60008060408385031215611df557600080fd5b823567ffffffffffffffff80821115611e0d57600080fd5b818501915085601f830112611e2157600080fd5b81356020611e2e826122f0565b604051611e3b82826123e0565b8381528281019150858301600585901b870184018b1015611e5b57600080fd5b600096505b84871015611e8557611e7181611a34565b835260019690960195918301918301611e60565b5096505086013592505080821115611e9c57600080fd5b50611ea985828601611a50565b9150509250929050565b600060208284031215611ec557600080fd5b5035919050565b60008060408385031215611edf57600080fd5b82359150611b6560208401611a34565b600060208284031215611f0157600080fd5b813561199481612510565b600060208284031215611f1e57600080fd5b815161199481612510565b600081518084526020808501945080840160005b83811015611f5957815187529582019590820190600101611f3d565b509495945050505050565b60008151808452611f7c816020860160208601612362565b601f01601f19169290920160200192915050565b7f416363657373436f6e74726f6c3a206163636f756e7420000000000000000000815260008351611fc8816017850160208801612362565b7001034b99036b4b9b9b4b733903937b6329607d1b6017918401918201528351611ff9816028840160208801612362565b01602801949350505050565b6001600160a01b0386811682528516602082015260a06040820181905260009061203190830186611f29565b82810360608401526120438186611f29565b905082810360808401526120578185611f64565b98975050505050505050565b6001600160a01b03868116825285166020820152604081018490526060810183905260a06080820181905260009061209d90830184611f64565b979650505050505050565b6020815260006119946020830184611f29565b6040815260006120ce6040830185611f29565b82810360208401526120e08185611f29565b95945050505050565b6020815260006119946020830184611f64565b60208082526028908201527f455243313135353a204552433131353552656365697665722072656a656374656040820152676420746f6b656e7360c01b606082015260800190565b60208082526024908201527f455243313135353a206275726e20616d6f756e7420657863656564732062616c604082015263616e636560e01b606082015260800190565b6020808252602e908201527f455243313135353a2063616c6c6572206973206e6f7420746f6b656e206f776e60408201526d195c881bdc88185c1c1c9bdd995960921b606082015260800190565b60208082526025908201527f455243313135353a207472616e7366657220746f20746865207a65726f206164604082015264647265737360d81b606082015260800190565b60208082526023908201527f455243313135353a206275726e2066726f6d20746865207a65726f206164647260408201526265737360e81b606082015260800190565b6020808252602a908201527f455243313135353a20696e73756666696369656e742062616c616e636520666f60408201526939103a3930b739b332b960b11b606082015260800190565b60208082526028908201527f455243313135353a2069647320616e6420616d6f756e7473206c656e677468206040820152670dad2e6dac2e8c6d60c31b606082015260800190565b600067ffffffffffffffff82111561230a5761230a612454565b5060051b60200190565b6000821982111561232757612327612428565b500190565b600081600019048311821515161561234657612346612428565b500290565b60008282101561235d5761235d612428565b500390565b60005b8381101561237d578181015183820152602001612365565b838111156111f15750506000910152565b60008161239d5761239d612428565b506000190190565b600181811c908216806123b957607f821691505b602082108114156123da57634e487b7160e01b600052602260045260246000fd5b50919050565b601f8201601f1916810167ffffffffffffffff8111828210171561240657612406612454565b6040525050565b600060001982141561242157612421612428565b5060010190565b634e487b7160e01b600052601160045260246000fd5b634e487b7160e01b600052603260045260246000fd5b634e487b7160e01b600052604160045260246000fd5b600060033d11156124835760046000803e5060005160e01c5b90565b600060443d10156124945790565b6040516003193d81016004833e81513d67ffffffffffffffff81602484011181841117156124c457505050505090565b82850191508151818111156124dc5750505050505090565b843d87010160208285010111156124f65750505050505090565b612505602082860101876123e0565b509095945050505050565b6001600160e01b031981168114610e6657600080fdfea2646970667358221220927e52a276429e02d0d51a2001798abaeec5c16e484e7d40f6018f494f10f7f464736f6c63430008070033",
  "devdoc": {
    "kind": "dev",
    "methods": {
      "balanceOf(address,uint256)": {
        "details": "See {IERC1155-balanceOf}. Requirements: - `account` cannot be the zero address."
      },
      "balanceOfBatch(address[],uint256[])": {
        "details": "See {IERC1155-balanceOfBatch}. Requirements: - `accounts` and `ids` must have the same length."
      },
      "getRoleAdmin(bytes32)": {
        "details": "Returns the admin role that controls `role`. See {grantRole} and {revokeRole}. To change a role's admin, use {_setRoleAdmin}."
      },
      "grantRole(bytes32,address)": {
        "details": "Grants `role` to `account`. If `account` had not been already granted `role`, emits a {RoleGranted} event. Requirements: - the caller must have ``role``'s admin role. May emit a {RoleGranted} event."
      },
      "hasRole(bytes32,address)": {
        "details": "Returns `true` if `account` has been granted `role`."
      },
      "isApprovedForAll(address,address)": {
        "details": "See {IERC1155-isApprovedForAll}."
      },
      "mintNew(address,uint256,uint256,string,string)": {
        "details": "user creates new NFTs"
      },
      "renounceRole(bytes32,address)": {
        "details": "Revokes `role` from the calling account. Roles are often managed via {grantRole} and {revokeRole}: this function's purpose is to provide a mechanism for accounts to lose their privileges if they are compromised (such as when a trusted device is misplaced). If the calling account had been revoked `role`, emits a {RoleRevoked} event. Requirements: - the caller must be `account`. May emit a {RoleRevoked} event."
      },
      "revokeRole(bytes32,address)": {
        "details": "Revokes `role` from `account`. If `account` had been granted `role`, emits a {RoleRevoked} event. Requirements: - the caller must have ``role``'s admin role. May emit a {RoleRevoked} event."
      },
      "safeBatchTransferFrom(address,address,uint256[],uint256[],bytes)": {
        "details": "See {IERC1155-safeBatchTransferFrom}."
      },
      "safeTransferFrom(address,address,uint256,uint256,bytes)": {
        "details": "See {IERC1155-safeTransferFrom}."
      },
      "setApprovalForAll(address,bool)": {
        "details": "See {IERC1155-setApprovalForAll}."
      },
      "supportsInterface(bytes4)": {
        "details": "See {IERC165-supportsInterface}."
      },
      "uri(uint256)": {
        "details": "See {IERC1155MetadataURI-uri}. This implementation returns the same URI for *all* token types. It relies on the token type ID substitution mechanism https://eips.ethereum.org/EIPS/eip-1155#metadata[defined in the EIP]. Clients calling this function must replace the `\\{id\\}` substring with the actual token type ID."
      }
    },
    "version": 1
  },
  "userdoc": {
    "kind": "user",
    "methods": {
      "burnIt(address,uint256,uint256)": {
        "notice": "Hay que alterar esta funcion llamada safeTransferFrom en ERC1155.sol y ERC1155Burnable y agregar esto al require \"|| hasRole(DEFAULT_ADMIN_ROLE, msg.sender)\" para permitir al owner transferir de un usuario a otro sin aprobacion"
      }
    },
    "notice": "Al nodemodule ERC1155, heredarle AccessControl!! ",
    "version": 1
  },
  "storageLayout": {
    "storage": [
      {
        "astId": 24,
        "contract": "contracts/NFTSPORT.sol:NFTSPORT",
        "label": "_roles",
        "offset": 0,
        "slot": "0",
        "type": "t_mapping(t_bytes32,t_struct(RoleData)19_storage)"
      },
      {
        "astId": 418,
        "contract": "contracts/NFTSPORT.sol:NFTSPORT",
        "label": "_balances",
        "offset": 0,
        "slot": "1",
        "type": "t_mapping(t_uint256,t_mapping(t_address,t_uint256))"
      },
      {
        "astId": 424,
        "contract": "contracts/NFTSPORT.sol:NFTSPORT",
        "label": "_operatorApprovals",
        "offset": 0,
        "slot": "2",
        "type": "t_mapping(t_address,t_mapping(t_address,t_bool))"
      },
      {
        "astId": 426,
        "contract": "contracts/NFTSPORT.sol:NFTSPORT",
        "label": "_uri",
        "offset": 0,
        "slot": "3",
        "type": "t_string_storage"
      },
      {
        "astId": 3302,
        "contract": "contracts/NFTSPORT.sol:NFTSPORT",
        "label": "id",
        "offset": 0,
        "slot": "4",
        "type": "t_uint256"
      },
      {
        "astId": 3304,
        "contract": "contracts/NFTSPORT.sol:NFTSPORT",
        "label": "_baseUri",
        "offset": 0,
        "slot": "5",
        "type": "t_string_storage"
      },
      {
        "astId": 3306,
        "contract": "contracts/NFTSPORT.sol:NFTSPORT",
        "label": "_contractUri",
        "offset": 0,
        "slot": "6",
        "type": "t_string_storage"
      },
      {
        "astId": 3315,
        "contract": "contracts/NFTSPORT.sol:NFTSPORT",
        "label": "ipfsHashes",
        "offset": 0,
        "slot": "7",
        "type": "t_mapping(t_uint256,t_string_storage)"
      },
      {
        "astId": 3320,
        "contract": "contracts/NFTSPORT.sol:NFTSPORT",
        "label": "tokenDatas",
        "offset": 0,
        "slot": "8",
        "type": "t_mapping(t_uint256,t_struct(tokenData)3311_storage)"
      },
      {
        "astId": 3324,
        "contract": "contracts/NFTSPORT.sol:NFTSPORT",
        "label": "ownerContents",
        "offset": 0,
        "slot": "9",
        "type": "t_mapping(t_uint256,t_string_storage)"
      }
    ],
    "types": {
      "t_address": {
        "encoding": "inplace",
        "label": "address",
        "numberOfBytes": "20"
      },
      "t_bool": {
        "encoding": "inplace",
        "label": "bool",
        "numberOfBytes": "1"
      },
      "t_bytes32": {
        "encoding": "inplace",
        "label": "bytes32",
        "numberOfBytes": "32"
      },
      "t_mapping(t_address,t_bool)": {
        "encoding": "mapping",
        "key": "t_address",
        "label": "mapping(address => bool)",
        "numberOfBytes": "32",
        "value": "t_bool"
      },
      "t_mapping(t_address,t_mapping(t_address,t_bool))": {
        "encoding": "mapping",
        "key": "t_address",
        "label": "mapping(address => mapping(address => bool))",
        "numberOfBytes": "32",
        "value": "t_mapping(t_address,t_bool)"
      },
      "t_mapping(t_address,t_uint256)": {
        "encoding": "mapping",
        "key": "t_address",
        "label": "mapping(address => uint256)",
        "numberOfBytes": "32",
        "value": "t_uint256"
      },
      "t_mapping(t_bytes32,t_struct(RoleData)19_storage)": {
        "encoding": "mapping",
        "key": "t_bytes32",
        "label": "mapping(bytes32 => struct AccessControl.RoleData)",
        "numberOfBytes": "32",
        "value": "t_struct(RoleData)19_storage"
      },
      "t_mapping(t_uint256,t_mapping(t_address,t_uint256))": {
        "encoding": "mapping",
        "key": "t_uint256",
        "label": "mapping(uint256 => mapping(address => uint256))",
        "numberOfBytes": "32",
        "value": "t_mapping(t_address,t_uint256)"
      },
      "t_mapping(t_uint256,t_string_storage)": {
        "encoding": "mapping",
        "key": "t_uint256",
        "label": "mapping(uint256 => string)",
        "numberOfBytes": "32",
        "value": "t_string_storage"
      },
      "t_mapping(t_uint256,t_struct(tokenData)3311_storage)": {
        "encoding": "mapping",
        "key": "t_uint256",
        "label": "mapping(uint256 => struct NFTSPORT.tokenData)",
        "numberOfBytes": "32",
        "value": "t_struct(tokenData)3311_storage"
      },
      "t_string_storage": {
        "encoding": "bytes",
        "label": "string",
        "numberOfBytes": "32"
      },
      "t_struct(RoleData)19_storage": {
        "encoding": "inplace",
        "label": "struct AccessControl.RoleData",
        "members": [
          {
            "astId": 16,
            "contract": "contracts/NFTSPORT.sol:NFTSPORT",
            "label": "members",
            "offset": 0,
            "slot": "0",
            "type": "t_mapping(t_address,t_bool)"
          },
          {
            "astId": 18,
            "contract": "contracts/NFTSPORT.sol:NFTSPORT",
            "label": "adminRole",
            "offset": 0,
            "slot": "1",
            "type": "t_bytes32"
          }
        ],
        "numberOfBytes": "64"
      },
      "t_struct(tokenData)3311_storage": {
        "encoding": "inplace",
        "label": "struct NFTSPORT.tokenData",
        "members": [
          {
            "astId": 3308,
            "contract": "contracts/NFTSPORT.sol:NFTSPORT",
            "label": "creator",
            "offset": 0,
            "slot": "0",
            "type": "t_address"
          },
          {
            "astId": 3310,
            "contract": "contracts/NFTSPORT.sol:NFTSPORT",
            "label": "royalty",
            "offset": 0,
            "slot": "1",
            "type": "t_uint256"
          }
        ],
        "numberOfBytes": "64"
      },
      "t_uint256": {
        "encoding": "inplace",
        "label": "uint256",
        "numberOfBytes": "32"
      }
    }
  }
}