{
  "address": "0x47A30daF3D050BDbE82a0da0c74A7D804962D130",
  "abi": [
    {
      "inputs": [
        {
          "internalType": "string",
          "name": "contractUri",
          "type": "string"
        }
      ],
      "stateMutability": "nonpayable",
      "type": "constructor"
    },
    {
      "anonymous": false,
      "inputs": [
        {
          "indexed": true,
          "internalType": "address",
          "name": "account",
          "type": "address"
        },
        {
          "indexed": true,
          "internalType": "address",
          "name": "operator",
          "type": "address"
        },
        {
          "indexed": false,
          "internalType": "bool",
          "name": "approved",
          "type": "bool"
        }
      ],
      "name": "ApprovalForAll",
      "type": "event"
    },
    {
      "anonymous": false,
      "inputs": [
        {
          "indexed": true,
          "internalType": "bytes32",
          "name": "role",
          "type": "bytes32"
        },
        {
          "indexed": true,
          "internalType": "bytes32",
          "name": "previousAdminRole",
          "type": "bytes32"
        },
        {
          "indexed": true,
          "internalType": "bytes32",
          "name": "newAdminRole",
          "type": "bytes32"
        }
      ],
      "name": "RoleAdminChanged",
      "type": "event"
    },
    {
      "anonymous": false,
      "inputs": [
        {
          "indexed": true,
          "internalType": "bytes32",
          "name": "role",
          "type": "bytes32"
        },
        {
          "indexed": true,
          "internalType": "address",
          "name": "account",
          "type": "address"
        },
        {
          "indexed": true,
          "internalType": "address",
          "name": "sender",
          "type": "address"
        }
      ],
      "name": "RoleGranted",
      "type": "event"
    },
    {
      "anonymous": false,
      "inputs": [
        {
          "indexed": true,
          "internalType": "bytes32",
          "name": "role",
          "type": "bytes32"
        },
        {
          "indexed": true,
          "internalType": "address",
          "name": "account",
          "type": "address"
        },
        {
          "indexed": true,
          "internalType": "address",
          "name": "sender",
          "type": "address"
        }
      ],
      "name": "RoleRevoked",
      "type": "event"
    },
    {
      "anonymous": false,
      "inputs": [
        {
          "indexed": true,
          "internalType": "address",
          "name": "operator",
          "type": "address"
        },
        {
          "indexed": true,
          "internalType": "address",
          "name": "from",
          "type": "address"
        },
        {
          "indexed": true,
          "internalType": "address",
          "name": "to",
          "type": "address"
        },
        {
          "indexed": false,
          "internalType": "uint256[]",
          "name": "ids",
          "type": "uint256[]"
        },
        {
          "indexed": false,
          "internalType": "uint256[]",
          "name": "values",
          "type": "uint256[]"
        }
      ],
      "name": "TransferBatch",
      "type": "event"
    },
    {
      "anonymous": false,
      "inputs": [
        {
          "indexed": true,
          "internalType": "address",
          "name": "operator",
          "type": "address"
        },
        {
          "indexed": true,
          "internalType": "address",
          "name": "from",
          "type": "address"
        },
        {
          "indexed": true,
          "internalType": "address",
          "name": "to",
          "type": "address"
        },
        {
          "indexed": false,
          "internalType": "uint256",
          "name": "id",
          "type": "uint256"
        },
        {
          "indexed": false,
          "internalType": "uint256",
          "name": "value",
          "type": "uint256"
        }
      ],
      "name": "TransferSingle",
      "type": "event"
    },
    {
      "anonymous": false,
      "inputs": [
        {
          "indexed": false,
          "internalType": "string",
          "name": "value",
          "type": "string"
        },
        {
          "indexed": true,
          "internalType": "uint256",
          "name": "id",
          "type": "uint256"
        }
      ],
      "name": "URI",
      "type": "event"
    },
    {
      "anonymous": false,
      "inputs": [
        {
          "indexed": false,
          "internalType": "address",
          "name": "creator",
          "type": "address"
        },
        {
          "indexed": false,
          "internalType": "uint256",
          "name": "amount",
          "type": "uint256"
        },
        {
          "indexed": false,
          "internalType": "uint256",
          "name": "id",
          "type": "uint256"
        }
      ],
      "name": "burnNFT",
      "type": "event"
    },
    {
      "anonymous": false,
      "inputs": [
        {
          "indexed": false,
          "internalType": "address",
          "name": "creator",
          "type": "address"
        },
        {
          "indexed": false,
          "internalType": "uint256",
          "name": "amount",
          "type": "uint256"
        },
        {
          "indexed": false,
          "internalType": "uint256",
          "name": "id",
          "type": "uint256"
        }
      ],
      "name": "newNFT",
      "type": "event"
    },
    {
      "inputs": [],
      "name": "DEFAULT_ADMIN_ROLE",
      "outputs": [
        {
          "internalType": "bytes32",
          "name": "",
          "type": "bytes32"
        }
      ],
      "stateMutability": "view",
      "type": "function"
    },
    {
      "inputs": [
        {
          "internalType": "address",
          "name": "account",
          "type": "address"
        },
        {
          "internalType": "uint256",
          "name": "id",
          "type": "uint256"
        }
      ],
      "name": "balanceOf",
      "outputs": [
        {
          "internalType": "uint256",
          "name": "",
          "type": "uint256"
        }
      ],
      "stateMutability": "view",
      "type": "function"
    },
    {
      "inputs": [
        {
          "internalType": "address[]",
          "name": "accounts",
          "type": "address[]"
        },
        {
          "internalType": "uint256[]",
          "name": "ids",
          "type": "uint256[]"
        }
      ],
      "name": "balanceOfBatch",
      "outputs": [
        {
          "internalType": "uint256[]",
          "name": "",
          "type": "uint256[]"
        }
      ],
      "stateMutability": "view",
      "type": "function"
    },
    {
      "inputs": [
        {
          "internalType": "address",
          "name": "account",
          "type": "address"
        },
        {
          "internalType": "uint256",
          "name": "id",
          "type": "uint256"
        },
        {
          "internalType": "uint256",
          "name": "value",
          "type": "uint256"
        }
      ],
      "name": "burn",
      "outputs": [],
      "stateMutability": "nonpayable",
      "type": "function"
    },
    {
      "inputs": [
        {
          "internalType": "address",
          "name": "account",
          "type": "address"
        },
        {
          "internalType": "uint256[]",
          "name": "ids",
          "type": "uint256[]"
        },
        {
          "internalType": "uint256[]",
          "name": "values",
          "type": "uint256[]"
        }
      ],
      "name": "burnBatch",
      "outputs": [],
      "stateMutability": "nonpayable",
      "type": "function"
    },
    {
      "inputs": [
        {
          "internalType": "uint256",
          "name": "tokenId",
          "type": "uint256"
        },
        {
          "internalType": "uint256",
          "name": "amount",
          "type": "uint256"
        }
      ],
      "name": "burnIt",
      "outputs": [],
      "stateMutability": "nonpayable",
      "type": "function"
    },
    {
      "inputs": [],
      "name": "contractURI",
      "outputs": [
        {
          "internalType": "string",
          "name": "",
          "type": "string"
        }
      ],
      "stateMutability": "view",
      "type": "function"
    },
    {
      "inputs": [
        {
          "internalType": "uint256",
          "name": "tokenId",
          "type": "uint256"
        }
      ],
      "name": "getOwnerContent",
      "outputs": [
        {
          "internalType": "string",
          "name": "",
          "type": "string"
        }
      ],
      "stateMutability": "view",
      "type": "function"
    },
    {
      "inputs": [
        {
          "internalType": "bytes32",
          "name": "role",
          "type": "bytes32"
        }
      ],
      "name": "getRoleAdmin",
      "outputs": [
        {
          "internalType": "bytes32",
          "name": "",
          "type": "bytes32"
        }
      ],
      "stateMutability": "view",
      "type": "function"
    },
    {
      "inputs": [
        {
          "internalType": "uint256",
          "name": "tokenId",
          "type": "uint256"
        }
      ],
      "name": "getTokenData",
      "outputs": [
        {
          "components": [
            {
              "internalType": "address",
              "name": "creator",
              "type": "address"
            },
            {
              "internalType": "uint256",
              "name": "royalty",
              "type": "uint256"
            }
          ],
          "internalType": "struct NFT1155.tokenData",
          "name": "",
          "type": "tuple"
        }
      ],
      "stateMutability": "view",
      "type": "function"
    },
    {
      "inputs": [
        {
          "internalType": "bytes32",
          "name": "role",
          "type": "bytes32"
        },
        {
          "internalType": "address",
          "name": "account",
          "type": "address"
        }
      ],
      "name": "grantRole",
      "outputs": [],
      "stateMutability": "nonpayable",
      "type": "function"
    },
    {
      "inputs": [
        {
          "internalType": "bytes32",
          "name": "role",
          "type": "bytes32"
        },
        {
          "internalType": "address",
          "name": "account",
          "type": "address"
        }
      ],
      "name": "hasRole",
      "outputs": [
        {
          "internalType": "bool",
          "name": "",
          "type": "bool"
        }
      ],
      "stateMutability": "view",
      "type": "function"
    },
    {
      "inputs": [
        {
          "internalType": "uint256",
          "name": "",
          "type": "uint256"
        }
      ],
      "name": "ipfsHashes",
      "outputs": [
        {
          "internalType": "string",
          "name": "",
          "type": "string"
        }
      ],
      "stateMutability": "view",
      "type": "function"
    },
    {
      "inputs": [
        {
          "internalType": "address",
          "name": "account",
          "type": "address"
        },
        {
          "internalType": "address",
          "name": "operator",
          "type": "address"
        }
      ],
      "name": "isApprovedForAll",
      "outputs": [
        {
          "internalType": "bool",
          "name": "",
          "type": "bool"
        }
      ],
      "stateMutability": "view",
      "type": "function"
    },
    {
      "inputs": [
        {
          "internalType": "uint256",
          "name": "amount",
          "type": "uint256"
        },
        {
          "internalType": "uint256",
          "name": "royalty",
          "type": "uint256"
        },
        {
          "internalType": "string",
          "name": "ownerContent",
          "type": "string"
        },
        {
          "internalType": "string",
          "name": "ipfshash",
          "type": "string"
        }
      ],
      "name": "mintNew",
      "outputs": [
        {
          "internalType": "uint256",
          "name": "",
          "type": "uint256"
        }
      ],
      "stateMutability": "nonpayable",
      "type": "function"
    },
    {
      "inputs": [
        {
          "internalType": "bytes32",
          "name": "role",
          "type": "bytes32"
        },
        {
          "internalType": "address",
          "name": "account",
          "type": "address"
        }
      ],
      "name": "renounceRole",
      "outputs": [],
      "stateMutability": "nonpayable",
      "type": "function"
    },
    {
      "inputs": [
        {
          "internalType": "bytes32",
          "name": "role",
          "type": "bytes32"
        },
        {
          "internalType": "address",
          "name": "account",
          "type": "address"
        }
      ],
      "name": "revokeRole",
      "outputs": [],
      "stateMutability": "nonpayable",
      "type": "function"
    },
    {
      "inputs": [
        {
          "internalType": "address",
          "name": "from",
          "type": "address"
        },
        {
          "internalType": "address",
          "name": "to",
          "type": "address"
        },
        {
          "internalType": "uint256[]",
          "name": "ids",
          "type": "uint256[]"
        },
        {
          "internalType": "uint256[]",
          "name": "amounts",
          "type": "uint256[]"
        },
        {
          "internalType": "bytes",
          "name": "data",
          "type": "bytes"
        }
      ],
      "name": "safeBatchTransferFrom",
      "outputs": [],
      "stateMutability": "nonpayable",
      "type": "function"
    },
    {
      "inputs": [
        {
          "internalType": "address",
          "name": "from",
          "type": "address"
        },
        {
          "internalType": "address",
          "name": "to",
          "type": "address"
        },
        {
          "internalType": "uint256",
          "name": "id",
          "type": "uint256"
        },
        {
          "internalType": "uint256",
          "name": "amount",
          "type": "uint256"
        },
        {
          "internalType": "bytes",
          "name": "data",
          "type": "bytes"
        }
      ],
      "name": "safeTransferFrom",
      "outputs": [],
      "stateMutability": "nonpayable",
      "type": "function"
    },
    {
      "inputs": [
        {
          "internalType": "address",
          "name": "operator",
          "type": "address"
        },
        {
          "internalType": "bool",
          "name": "approved",
          "type": "bool"
        }
      ],
      "name": "setApprovalForAll",
      "outputs": [],
      "stateMutability": "nonpayable",
      "type": "function"
    },
    {
      "inputs": [
        {
          "internalType": "bytes4",
          "name": "interfaceId",
          "type": "bytes4"
        }
      ],
      "name": "supportsInterface",
      "outputs": [
        {
          "internalType": "bool",
          "name": "",
          "type": "bool"
        }
      ],
      "stateMutability": "view",
      "type": "function"
    },
    {
      "inputs": [
        {
          "internalType": "uint256",
          "name": "",
          "type": "uint256"
        }
      ],
      "name": "tokenDatas",
      "outputs": [
        {
          "internalType": "address",
          "name": "creator",
          "type": "address"
        },
        {
          "internalType": "uint256",
          "name": "royalty",
          "type": "uint256"
        }
      ],
      "stateMutability": "view",
      "type": "function"
    },
    {
      "inputs": [
        {
          "internalType": "uint256",
          "name": "",
          "type": "uint256"
        }
      ],
      "name": "uri",
      "outputs": [
        {
          "internalType": "string",
          "name": "",
          "type": "string"
        }
      ],
      "stateMutability": "view",
      "type": "function"
    }
  ],
  "transactionHash": "0x1d60decd1d338498fa9a19d478ec3278304f8f5512435e4b2284732fee2e1233",
  "args": [
    "o"
  ],
  "solcInputHash": "a6bca14a906c609ca45e7ca5608bc28a",
  "bytecode": "0x608060405260016004553480156200001657600080fd5b50604051620028fd380380620028fd83398101604081905262000039916200023f565b6040805160208101909152600081526200005381620000d3565b5062000061600033620000ec565b60408051808201909152600780825266697066733a2f2f60c81b6020909201918252620000919160059162000199565b5080604051602001620000a59190620002f7565b60405160208183030381529060405260069080519060200190620000cb92919062000199565b5050620003ae565b8051620000e890600290602084019062000199565b5050565b60008281526003602090815260408083206001600160a01b0385168452909152902054620000e8908390839060ff16620000e85760008281526003602090815260408083206001600160a01b03851684529091529020805460ff19166001179055620001553390565b6001600160a01b0316816001600160a01b0316837f2f8788117e7eff1d82e926ec794901d17c78024a50270940304540a733656f0d60405160405180910390a45050565b828054620001a7906200035b565b90600052602060002090601f016020900481019282620001cb576000855562000216565b82601f10620001e657805160ff191683800117855562000216565b8280016001018555821562000216579182015b8281111562000216578251825591602001919060010190620001f9565b506200022492915062000228565b5090565b5b8082111562000224576000815560010162000229565b6000602082840312156200025257600080fd5b81516001600160401b03808211156200026a57600080fd5b818401915084601f8301126200027f57600080fd5b81518181111562000294576200029462000398565b604051601f8201601f19908116603f01168101908382118183101715620002bf57620002bf62000398565b81604052828152876020848701011115620002d957600080fd5b620002ec83602083016020880162000328565b979650505050505050565b66697066733a2f2f60c81b8152600082516200031b81600785016020870162000328565b9190910160070192915050565b60005b83811015620003455781810151838201526020016200032b565b8381111562000355576000848401525b50505050565b600181811c908216806200037057607f821691505b602082108114156200039257634e487b7160e01b600052602260045260246000fd5b50919050565b634e487b7160e01b600052604160045260246000fd5b61253f80620003be6000396000f3fe608060405234801561001057600080fd5b506004361061014c5760003560e01c8063a217fddf116100c3578063da0063411161007c578063da0063411461038e578063e8a3d485146103a1578063e985e9c5146103a9578063ea6ac740146103e5578063f242432a146103f8578063f5298aca1461040b57600080fd5b8063a217fddf146102c1578063a22cb465146102c9578063a4de2f5c146102dc578063b09afec1146102ef578063b6b75c3814610368578063d547741f1461037b57600080fd5b80632f2ff15d116101155780632f2ff15d1461020357806336568abe146102165780634e1273f4146102295780636b20c454146102495780636fc37a751461025c57806391d14854146102ae57600080fd5b8062fdd58e1461015157806301ffc9a7146101775780630e89341c146101ab578063248a9ca3146101cb5780632eb2c2d6146101ee575b600080fd5b61016461015f366004611cd6565b61041e565b6040519081526020015b60405180910390f35b61019b610185366004611e40565b6001600160e01b0319166301ffc9a760e01b1490565b604051901515815260200161016e565b6101be6101b9366004611e04565b6104b5565b60405161016e91906120ca565b6101646101d9366004611e04565b60009081526003602052604090206001015490565b6102016101fc366004611b17565b610549565b005b610201610211366004611e1d565b6107b3565b610201610224366004611e1d565b6107de565b61023c610237366004611d33565b61085c565b60405161016e9190612092565b610201610257366004611c26565b610986565b61028f61026a366004611e04565b600860205260009081526040902080546001909101546001600160a01b039091169082565b604080516001600160a01b03909316835260208301919091520161016e565b61019b6102bc366004611e1d565b6109c9565b610164600081565b6102016102d7366004611c9a565b6109f4565b6101be6102ea366004611e04565b610acb565b6103446102fd366004611e04565b604080518082019091526000808252602082015250600090815260086020908152604091829020825180840190935280546001600160a01b03168352600101549082015290565b6040805182516001600160a01b03168152602092830151928101929092520161016e565b610201610376366004611e7a565b610b65565b610201610389366004611e1d565b610c04565b6101be61039c366004611e04565b610c2a565b6101be610c94565b61019b6103b7366004611ae4565b6001600160a01b03918216600090815260016020908152604080832093909416825291909152205460ff1690565b6101646103f3366004611e9c565b610d26565b610201610406366004611bc1565b610e8b565b610201610419366004611d00565b610ff9565b60006001600160a01b03831661048f5760405162461bcd60e51b815260206004820152602b60248201527f455243313135353a2062616c616e636520717565727920666f7220746865207a60448201526a65726f206164647265737360a81b60648201526084015b60405180910390fd5b506000908152602081815260408083206001600160a01b03949094168352929052205490565b6060600280546104c490612385565b80601f01602080910402602001604051908101604052809291908181526020018280546104f090612385565b801561053d5780601f106105125761010080835404028352916020019161053d565b820191906000526020600020905b81548152906001019060200180831161052057829003601f168201915b50505050509050919050565b815183511461056a5760405162461bcd60e51b815260040161048690612284565b6001600160a01b0384166105905760405162461bcd60e51b8152600401610486906121b2565b6001600160a01b0385163314806105ac57506105ac85336103b7565b6106135760405162461bcd60e51b815260206004820152603260248201527f455243313135353a207472616e736665722063616c6c6572206973206e6f74206044820152711bdddb995c881b9bdc88185c1c1c9bdd995960721b6064820152608401610486565b3360005b84518110156107455760008582815181106106345761063461241e565b6020026020010151905060008583815181106106525761065261241e565b602090810291909101810151600084815280835260408082206001600160a01b038e1683529093529190912054909150818110156106a25760405162461bcd60e51b81526004016104869061223a565b6106ac8282612327565b60008085815260200190815260200160002060008c6001600160a01b03166001600160a01b03168152602001908152602001600020819055508160008085815260200190815260200160002060008b6001600160a01b03166001600160a01b03168152602001908152602001600020600082825461072a91906122f0565b925050819055505050508061073e906123ed565b9050610617565b50846001600160a01b0316866001600160a01b0316826001600160a01b03167f4a39dc06d4c0dbc64b70af90fd698a233a518aa5d07e595d983b8c0526c8f7fb87876040516107959291906120a5565b60405180910390a46107ab81878787878761103c565b505050505050565b6000828152600360205260409020600101546107cf81336111a7565b6107d9838361120b565b505050565b6001600160a01b038116331461084e5760405162461bcd60e51b815260206004820152602f60248201527f416363657373436f6e74726f6c3a2063616e206f6e6c792072656e6f756e636560448201526e103937b632b9903337b91039b2b63360891b6064820152608401610486565b6108588282611291565b5050565b606081518351146108c15760405162461bcd60e51b815260206004820152602960248201527f455243313135353a206163636f756e747320616e6420696473206c656e677468604482015268040dad2e6dac2e8c6d60bb1b6064820152608401610486565b6000835167ffffffffffffffff8111156108dd576108dd612434565b604051908082528060200260200182016040528015610906578160200160208202803683370190505b50905060005b845181101561097e5761095185828151811061092a5761092a61241e565b60200260200101518583815181106109445761094461241e565b602002602001015161041e565b8282815181106109635761096361241e565b6020908102919091010152610977816123ed565b905061090c565b509392505050565b6001600160a01b0383163314806109a257506109a283336103b7565b6109be5760405162461bcd60e51b815260040161048690612169565b6107d98383836112f8565b60009182526003602090815260408084206001600160a01b0393909316845291905290205460ff1690565b336001600160a01b0383161415610a5f5760405162461bcd60e51b815260206004820152602960248201527f455243313135353a2073657474696e6720617070726f76616c20737461747573604482015268103337b91039b2b63360b91b6064820152608401610486565b3360008181526001602090815260408083206001600160a01b03871680855290835292819020805460ff191686151590811790915590519081529192917f17307eab39ab6107e8899845ad3d59bd9653f200f220920489ca2b5937696c31910160405180910390a35050565b60076020526000908152604090208054610ae490612385565b80601f0160208091040260200160405190810160405280929190818152602001828054610b1090612385565b8015610b5d5780601f10610b3257610100808354040283529160200191610b5d565b820191906000526020600020905b815481529060010190602001808311610b4057829003601f168201915b505050505081565b610b706000336109c9565b610bb45760405162461bcd60e51b81526020600482015260156024820152744f6e6c79206f776e65722063616e2061636365737360581b6044820152606401610486565b610bbf338383610ff9565b60408051338152602081018390529081018390527f1cc509fd6d94910dd0d5d3f822c08fc79ca13c4324eda49ceffd7fdcf99ddb049060600160405180910390a15050565b600082815260036020526040902060010154610c2081336111a7565b6107d98383611291565b60606000610c38338461041e565b11610c7b5760405162461bcd60e51b8152602060048201526013602482015272596f7520646f6e74206f776e20746f6b656e7360681b6044820152606401610486565b600082815260096020526040902080546104c490612385565b606060068054610ca390612385565b80601f0160208091040260200160405190810160405280929190818152602001828054610ccf90612385565b8015610d1c5780601f10610cf157610100808354040283529160200191610d1c565b820191906000526020600020905b815481529060010190602001808311610cff57829003601f168201915b5050505050905090565b6000610d3281336109c9565b610d765760405162461bcd60e51b81526020600482015260156024820152744f6e6c79206f776e65722063616e2061636365737360581b6044820152606401610486565b610d93336004548760405180602001604052806000815250611481565b60045460009081526007602090815260409091208351610db592850190611944565b50604080518082018252338152602080820187815260048054600090815260088452858120945185546001600160a01b0319166001600160a01b03909116178555915160019094019390935591548252600981529190208451610e1a92860190611944565b50600454604080513381526020810188905280820192909252517f738d754d9e4ed63efb97cec47b56299361b8fd39cd676286fbe4794172cbe7d79181900360600190a160048054906000610e6e836123ed565b91905055506001600454610e829190612327565b95945050505050565b6001600160a01b038416610eb15760405162461bcd60e51b8152600401610486906121b2565b6001600160a01b038516331480610ecd5750610ecd85336103b7565b610ee95760405162461bcd60e51b815260040161048690612169565b33610f09818787610ef988611582565b610f0288611582565b5050505050565b6000848152602081815260408083206001600160a01b038a16845290915290205483811015610f4a5760405162461bcd60e51b81526004016104869061223a565b610f548482612327565b6000868152602081815260408083206001600160a01b038c81168552925280832093909355881681529081208054869290610f909084906122f0565b909155505060408051868152602081018690526001600160a01b03808916928a821692918616917fc3d58168c5ae7397731d063d5bbf3d657854427343f4c083240f7aacaa2d0f62910160405180910390a4610ff08288888888886115cd565b50505050505050565b6001600160a01b038316331480611015575061101583336103b7565b6110315760405162461bcd60e51b815260040161048690612169565b6107d9838383611697565b6001600160a01b0384163b156107ab5760405163bc197c8160e01b81526001600160a01b0385169063bc197c81906110809089908990889088908890600401611fef565b602060405180830381600087803b15801561109a57600080fd5b505af19250505080156110ca575060408051601f3d908101601f191682019092526110c791810190611e5d565b60015b611177576110d661244a565b806308c379a0141561111057506110eb612466565b806110f65750611112565b8060405162461bcd60e51b815260040161048691906120ca565b505b60405162461bcd60e51b815260206004820152603460248201527f455243313135353a207472616e7366657220746f206e6f6e20455243313135356044820152732932b1b2b4bb32b91034b6b83632b6b2b73a32b960611b6064820152608401610486565b6001600160e01b0319811663bc197c8160e01b14610ff05760405162461bcd60e51b8152600401610486906120dd565b6111b182826109c9565b610858576111c9816001600160a01b031660146117a1565b6111d48360206117a1565b6040516020016111e5929190611f7a565b60408051601f198184030181529082905262461bcd60e51b8252610486916004016120ca565b61121582826109c9565b6108585760008281526003602090815260408083206001600160a01b03851684529091529020805460ff1916600117905561124d3390565b6001600160a01b0316816001600160a01b0316837f2f8788117e7eff1d82e926ec794901d17c78024a50270940304540a733656f0d60405160405180910390a45050565b61129b82826109c9565b156108585760008281526003602090815260408083206001600160a01b0385168085529252808320805460ff1916905551339285917ff6391f5c32d9c69d2a47ea670b442974b53935d1edc7fd64eb21e047a839171b9190a45050565b6001600160a01b03831661131e5760405162461bcd60e51b8152600401610486906121f7565b805182511461133f5760405162461bcd60e51b815260040161048690612284565b604080516020810190915260009081905233905b83518110156114225760008482815181106113705761137061241e565b60200260200101519050600084838151811061138e5761138e61241e565b602090810291909101810151600084815280835260408082206001600160a01b038c1683529093529190912054909150818110156113de5760405162461bcd60e51b815260040161048690612125565b6113e88282612327565b6000938452602084815260408086206001600160a01b038c168752909152909320929092555081905061141a816123ed565b915050611353565b5060006001600160a01b0316846001600160a01b0316826001600160a01b03167f4a39dc06d4c0dbc64b70af90fd698a233a518aa5d07e595d983b8c0526c8f7fb86866040516114739291906120a5565b60405180910390a450505050565b6001600160a01b0384166114e15760405162461bcd60e51b815260206004820152602160248201527f455243313135353a206d696e7420746f20746865207a65726f206164647265736044820152607360f81b6064820152608401610486565b336114f281600087610ef988611582565b6000848152602081815260408083206001600160a01b0389168452909152812080548592906115229084906122f0565b909155505060408051858152602081018590526001600160a01b0380881692600092918516917fc3d58168c5ae7397731d063d5bbf3d657854427343f4c083240f7aacaa2d0f62910160405180910390a4610f02816000878787876115cd565b604080516001808252818301909252606091600091906020808301908036833701905050905082816000815181106115bc576115bc61241e565b602090810291909101015292915050565b6001600160a01b0384163b156107ab5760405163f23a6e6160e01b81526001600160a01b0385169063f23a6e6190611611908990899088908890889060040161204d565b602060405180830381600087803b15801561162b57600080fd5b505af192505050801561165b575060408051601f3d908101601f1916820190925261165891810190611e5d565b60015b611667576110d661244a565b6001600160e01b0319811663f23a6e6160e01b14610ff05760405162461bcd60e51b8152600401610486906120dd565b6001600160a01b0383166116bd5760405162461bcd60e51b8152600401610486906121f7565b336116ed818560006116ce87611582565b6116d787611582565b5050604080516020810190915260009052505050565b6000838152602081815260408083206001600160a01b03881684529091529020548281101561172e5760405162461bcd60e51b815260040161048690612125565b6117388382612327565b6000858152602081815260408083206001600160a01b038a811680865291845282852095909555815189815292830188905292938616917fc3d58168c5ae7397731d063d5bbf3d657854427343f4c083240f7aacaa2d0f62910160405180910390a45050505050565b606060006117b0836002612308565b6117bb9060026122f0565b67ffffffffffffffff8111156117d3576117d3612434565b6040519080825280601f01601f1916602001820160405280156117fd576020820181803683370190505b509050600360fc1b816000815181106118185761181861241e565b60200101906001600160f81b031916908160001a905350600f60fb1b816001815181106118475761184761241e565b60200101906001600160f81b031916908160001a905350600061186b846002612308565b6118769060016122f0565b90505b60018111156118ee576f181899199a1a9b1b9c1cb0b131b232b360811b85600f16601081106118aa576118aa61241e565b1a60f81b8282815181106118c0576118c061241e565b60200101906001600160f81b031916908160001a90535060049490941c936118e78161236e565b9050611879565b50831561193d5760405162461bcd60e51b815260206004820181905260248201527f537472696e67733a20686578206c656e67746820696e73756666696369656e746044820152606401610486565b9392505050565b82805461195090612385565b90600052602060002090601f01602090048101928261197257600085556119b8565b82601f1061198b57805160ff19168380011785556119b8565b828001600101855582156119b8579182015b828111156119b857825182559160200191906001019061199d565b506119c49291506119c8565b5090565b5b808211156119c457600081556001016119c9565b80356001600160a01b03811681146119f457600080fd5b919050565b600082601f830112611a0a57600080fd5b81356020611a17826122cc565b604051611a2482826123c0565b8381528281019150858301600585901b87018401881015611a4457600080fd5b60005b85811015611a6357813584529284019290840190600101611a47565b5090979650505050505050565b600082601f830112611a8157600080fd5b813567ffffffffffffffff811115611a9b57611a9b612434565b604051611ab2601f8301601f1916602001826123c0565b818152846020838601011115611ac757600080fd5b816020850160208301376000918101602001919091529392505050565b60008060408385031215611af757600080fd5b611b00836119dd565b9150611b0e602084016119dd565b90509250929050565b600080600080600060a08688031215611b2f57600080fd5b611b38866119dd565b9450611b46602087016119dd565b9350604086013567ffffffffffffffff80821115611b6357600080fd5b611b6f89838a016119f9565b94506060880135915080821115611b8557600080fd5b611b9189838a016119f9565b93506080880135915080821115611ba757600080fd5b50611bb488828901611a70565b9150509295509295909350565b600080600080600060a08688031215611bd957600080fd5b611be2866119dd565b9450611bf0602087016119dd565b93506040860135925060608601359150608086013567ffffffffffffffff811115611c1a57600080fd5b611bb488828901611a70565b600080600060608486031215611c3b57600080fd5b611c44846119dd565b9250602084013567ffffffffffffffff80821115611c6157600080fd5b611c6d878388016119f9565b93506040860135915080821115611c8357600080fd5b50611c90868287016119f9565b9150509250925092565b60008060408385031215611cad57600080fd5b611cb6836119dd565b915060208301358015158114611ccb57600080fd5b809150509250929050565b60008060408385031215611ce957600080fd5b611cf2836119dd565b946020939093013593505050565b600080600060608486031215611d1557600080fd5b611d1e846119dd565b95602085013595506040909401359392505050565b60008060408385031215611d4657600080fd5b823567ffffffffffffffff80821115611d5e57600080fd5b818501915085601f830112611d7257600080fd5b81356020611d7f826122cc565b604051611d8c82826123c0565b8381528281019150858301600585901b870184018b1015611dac57600080fd5b600096505b84871015611dd657611dc2816119dd565b835260019690960195918301918301611db1565b5096505086013592505080821115611ded57600080fd5b50611dfa858286016119f9565b9150509250929050565b600060208284031215611e1657600080fd5b5035919050565b60008060408385031215611e3057600080fd5b82359150611b0e602084016119dd565b600060208284031215611e5257600080fd5b813561193d816124f0565b600060208284031215611e6f57600080fd5b815161193d816124f0565b60008060408385031215611e8d57600080fd5b50508035926020909101359150565b60008060008060808587031215611eb257600080fd5b8435935060208501359250604085013567ffffffffffffffff80821115611ed857600080fd5b611ee488838901611a70565b93506060870135915080821115611efa57600080fd5b50611f0787828801611a70565b91505092959194509250565b600081518084526020808501945080840160005b83811015611f4357815187529582019590820190600101611f27565b509495945050505050565b60008151808452611f6681602086016020860161233e565b601f01601f19169290920160200192915050565b7f416363657373436f6e74726f6c3a206163636f756e7420000000000000000000815260008351611fb281601785016020880161233e565b7001034b99036b4b9b9b4b733903937b6329607d1b6017918401918201528351611fe381602884016020880161233e565b01602801949350505050565b6001600160a01b0386811682528516602082015260a06040820181905260009061201b90830186611f13565b828103606084015261202d8186611f13565b905082810360808401526120418185611f4e565b98975050505050505050565b6001600160a01b03868116825285166020820152604081018490526060810183905260a06080820181905260009061208790830184611f4e565b979650505050505050565b60208152600061193d6020830184611f13565b6040815260006120b86040830185611f13565b8281036020840152610e828185611f13565b60208152600061193d6020830184611f4e565b60208082526028908201527f455243313135353a204552433131353552656365697665722072656a656374656040820152676420746f6b656e7360c01b606082015260800190565b60208082526024908201527f455243313135353a206275726e20616d6f756e7420657863656564732062616c604082015263616e636560e01b606082015260800190565b60208082526029908201527f455243313135353a2063616c6c6572206973206e6f74206f776e6572206e6f7260408201526808185c1c1c9bdd995960ba1b606082015260800190565b60208082526025908201527f455243313135353a207472616e7366657220746f20746865207a65726f206164604082015264647265737360d81b606082015260800190565b60208082526023908201527f455243313135353a206275726e2066726f6d20746865207a65726f206164647260408201526265737360e81b606082015260800190565b6020808252602a908201527f455243313135353a20696e73756666696369656e742062616c616e636520666f60408201526939103a3930b739b332b960b11b606082015260800190565b60208082526028908201527f455243313135353a2069647320616e6420616d6f756e7473206c656e677468206040820152670dad2e6dac2e8c6d60c31b606082015260800190565b600067ffffffffffffffff8211156122e6576122e6612434565b5060051b60200190565b6000821982111561230357612303612408565b500190565b600081600019048311821515161561232257612322612408565b500290565b60008282101561233957612339612408565b500390565b60005b83811015612359578181015183820152602001612341565b83811115612368576000848401525b50505050565b60008161237d5761237d612408565b506000190190565b600181811c9082168061239957607f821691505b602082108114156123ba57634e487b7160e01b600052602260045260246000fd5b50919050565b601f8201601f1916810167ffffffffffffffff811182821017156123e6576123e6612434565b6040525050565b600060001982141561240157612401612408565b5060010190565b634e487b7160e01b600052601160045260246000fd5b634e487b7160e01b600052603260045260246000fd5b634e487b7160e01b600052604160045260246000fd5b600060033d11156124635760046000803e5060005160e01c5b90565b600060443d10156124745790565b6040516003193d81016004833e81513d67ffffffffffffffff81602484011181841117156124a457505050505090565b82850191508151818111156124bc5750505050505090565b843d87010160208285010111156124d65750505050505090565b6124e5602082860101876123c0565b509095945050505050565b6001600160e01b03198116811461250657600080fd5b5056fea264697066735822122054c21729626dc8157204d2618d84fb5da9b5c2a57dda8d516fe4a8dd05cc58dc64736f6c63430008070033",
  "devdoc": {
    "kind": "dev",
    "methods": {
      "balanceOf(address,uint256)": {
        "details": "See {IERC1155-balanceOf}. Requirements: - `account` cannot be the zero address."
      },
      "balanceOfBatch(address[],uint256[])": {
        "details": "See {IERC1155-balanceOfBatch}. Requirements: - `accounts` and `ids` must have the same length."
      },
      "burnIt(uint256,uint256)": {
        "details": "user burns his NFTs"
      },
      "getRoleAdmin(bytes32)": {
        "details": "Returns the admin role that controls `role`. See {grantRole} and {revokeRole}. To change a role's admin, use {_setRoleAdmin}."
      },
      "grantRole(bytes32,address)": {
        "details": "Grants `role` to `account`. If `account` had not been already granted `role`, emits a {RoleGranted} event. Requirements: - the caller must have ``role``'s admin role."
      },
      "hasRole(bytes32,address)": {
        "details": "Returns `true` if `account` has been granted `role`."
      },
      "isApprovedForAll(address,address)": {
        "details": "See {IERC1155-isApprovedForAll}."
      },
      "mintNew(uint256,uint256,string,string)": {
        "details": "user creates new NFTs"
      },
      "renounceRole(bytes32,address)": {
        "details": "Revokes `role` from the calling account. Roles are often managed via {grantRole} and {revokeRole}: this function's purpose is to provide a mechanism for accounts to lose their privileges if they are compromised (such as when a trusted device is misplaced). If the calling account had been granted `role`, emits a {RoleRevoked} event. Requirements: - the caller must be `account`."
      },
      "revokeRole(bytes32,address)": {
        "details": "Revokes `role` from `account`. If `account` had been granted `role`, emits a {RoleRevoked} event. Requirements: - the caller must have ``role``'s admin role."
      },
      "safeBatchTransferFrom(address,address,uint256[],uint256[],bytes)": {
        "details": "See {IERC1155-safeBatchTransferFrom}."
      },
      "safeTransferFrom(address,address,uint256,uint256,bytes)": {
        "details": "See {IERC1155-safeTransferFrom}."
      },
      "setApprovalForAll(address,bool)": {
        "details": "See {IERC1155-setApprovalForAll}."
      },
      "supportsInterface(bytes4)": {
        "details": "See {IERC165-supportsInterface}."
      },
      "uri(uint256)": {
        "details": "See {IERC1155MetadataURI-uri}. This implementation returns the same URI for *all* token types. It relies on the token type ID substitution mechanism https://eips.ethereum.org/EIPS/eip-1155#metadata[defined in the EIP]. Clients calling this function must replace the `\\{id\\}` substring with the actual token type ID."
      }
    },
    "version": 1
  },
  "userdoc": {
    "kind": "user",
    "methods": {},
    "version": 1
  },
  "storageLayout": {
    "storage": [
      {
        "astId": 1978,
        "contract": "contracts/NFT1155.sol:NFT1155",
        "label": "_balances",
        "offset": 0,
        "slot": "0",
        "type": "t_mapping(t_uint256,t_mapping(t_address,t_uint256))"
      },
      {
        "astId": 1984,
        "contract": "contracts/NFT1155.sol:NFT1155",
        "label": "_operatorApprovals",
        "offset": 0,
        "slot": "1",
        "type": "t_mapping(t_address,t_mapping(t_address,t_bool))"
      },
      {
        "astId": 1986,
        "contract": "contracts/NFT1155.sol:NFT1155",
        "label": "_uri",
        "offset": 0,
        "slot": "2",
        "type": "t_string_storage"
      },
      {
        "astId": 1237,
        "contract": "contracts/NFT1155.sol:NFT1155",
        "label": "_roles",
        "offset": 0,
        "slot": "3",
        "type": "t_mapping(t_bytes32,t_struct(RoleData)1232_storage)"
      },
      {
        "astId": 5752,
        "contract": "contracts/NFT1155.sol:NFT1155",
        "label": "id",
        "offset": 0,
        "slot": "4",
        "type": "t_uint256"
      },
      {
        "astId": 5754,
        "contract": "contracts/NFT1155.sol:NFT1155",
        "label": "_baseUri",
        "offset": 0,
        "slot": "5",
        "type": "t_string_storage"
      },
      {
        "astId": 5756,
        "contract": "contracts/NFT1155.sol:NFT1155",
        "label": "_contractUri",
        "offset": 0,
        "slot": "6",
        "type": "t_string_storage"
      },
      {
        "astId": 5765,
        "contract": "contracts/NFT1155.sol:NFT1155",
        "label": "ipfsHashes",
        "offset": 0,
        "slot": "7",
        "type": "t_mapping(t_uint256,t_string_storage)"
      },
      {
        "astId": 5770,
        "contract": "contracts/NFT1155.sol:NFT1155",
        "label": "tokenDatas",
        "offset": 0,
        "slot": "8",
        "type": "t_mapping(t_uint256,t_struct(tokenData)5761_storage)"
      },
      {
        "astId": 5774,
        "contract": "contracts/NFT1155.sol:NFT1155",
        "label": "ownerContents",
        "offset": 0,
        "slot": "9",
        "type": "t_mapping(t_uint256,t_string_storage)"
      }
    ],
    "types": {
      "t_address": {
        "encoding": "inplace",
        "label": "address",
        "numberOfBytes": "20"
      },
      "t_bool": {
        "encoding": "inplace",
        "label": "bool",
        "numberOfBytes": "1"
      },
      "t_bytes32": {
        "encoding": "inplace",
        "label": "bytes32",
        "numberOfBytes": "32"
      },
      "t_mapping(t_address,t_bool)": {
        "encoding": "mapping",
        "key": "t_address",
        "label": "mapping(address => bool)",
        "numberOfBytes": "32",
        "value": "t_bool"
      },
      "t_mapping(t_address,t_mapping(t_address,t_bool))": {
        "encoding": "mapping",
        "key": "t_address",
        "label": "mapping(address => mapping(address => bool))",
        "numberOfBytes": "32",
        "value": "t_mapping(t_address,t_bool)"
      },
      "t_mapping(t_address,t_uint256)": {
        "encoding": "mapping",
        "key": "t_address",
        "label": "mapping(address => uint256)",
        "numberOfBytes": "32",
        "value": "t_uint256"
      },
      "t_mapping(t_bytes32,t_struct(RoleData)1232_storage)": {
        "encoding": "mapping",
        "key": "t_bytes32",
        "label": "mapping(bytes32 => struct AccessControl.RoleData)",
        "numberOfBytes": "32",
        "value": "t_struct(RoleData)1232_storage"
      },
      "t_mapping(t_uint256,t_mapping(t_address,t_uint256))": {
        "encoding": "mapping",
        "key": "t_uint256",
        "label": "mapping(uint256 => mapping(address => uint256))",
        "numberOfBytes": "32",
        "value": "t_mapping(t_address,t_uint256)"
      },
      "t_mapping(t_uint256,t_string_storage)": {
        "encoding": "mapping",
        "key": "t_uint256",
        "label": "mapping(uint256 => string)",
        "numberOfBytes": "32",
        "value": "t_string_storage"
      },
      "t_mapping(t_uint256,t_struct(tokenData)5761_storage)": {
        "encoding": "mapping",
        "key": "t_uint256",
        "label": "mapping(uint256 => struct NFT1155.tokenData)",
        "numberOfBytes": "32",
        "value": "t_struct(tokenData)5761_storage"
      },
      "t_string_storage": {
        "encoding": "bytes",
        "label": "string",
        "numberOfBytes": "32"
      },
      "t_struct(RoleData)1232_storage": {
        "encoding": "inplace",
        "label": "struct AccessControl.RoleData",
        "members": [
          {
            "astId": 1229,
            "contract": "contracts/NFT1155.sol:NFT1155",
            "label": "members",
            "offset": 0,
            "slot": "0",
            "type": "t_mapping(t_address,t_bool)"
          },
          {
            "astId": 1231,
            "contract": "contracts/NFT1155.sol:NFT1155",
            "label": "adminRole",
            "offset": 0,
            "slot": "1",
            "type": "t_bytes32"
          }
        ],
        "numberOfBytes": "64"
      },
      "t_struct(tokenData)5761_storage": {
        "encoding": "inplace",
        "label": "struct NFT1155.tokenData",
        "members": [
          {
            "astId": 5758,
            "contract": "contracts/NFT1155.sol:NFT1155",
            "label": "creator",
            "offset": 0,
            "slot": "0",
            "type": "t_address"
          },
          {
            "astId": 5760,
            "contract": "contracts/NFT1155.sol:NFT1155",
            "label": "royalty",
            "offset": 0,
            "slot": "1",
            "type": "t_uint256"
          }
        ],
        "numberOfBytes": "64"
      },
      "t_uint256": {
        "encoding": "inplace",
        "label": "uint256",
        "numberOfBytes": "32"
      }
    }
  }
}