{
  "address": "0x931328D9632228E3EF3bAa790fEC123165A11e65",
  "abi": [
    {
      "anonymous": false,
      "inputs": [
        {
          "indexed": true,
          "internalType": "address",
          "name": "owner",
          "type": "address"
        },
        {
          "indexed": true,
          "internalType": "address",
          "name": "approved",
          "type": "address"
        },
        {
          "indexed": true,
          "internalType": "uint256",
          "name": "tokenId",
          "type": "uint256"
        }
      ],
      "name": "Approval",
      "type": "event"
    },
    {
      "anonymous": false,
      "inputs": [
        {
          "indexed": true,
          "internalType": "address",
          "name": "owner",
          "type": "address"
        },
        {
          "indexed": true,
          "internalType": "address",
          "name": "operator",
          "type": "address"
        },
        {
          "indexed": false,
          "internalType": "bool",
          "name": "approved",
          "type": "bool"
        }
      ],
      "name": "ApprovalForAll",
      "type": "event"
    },
    {
      "anonymous": false,
      "inputs": [
        {
          "indexed": false,
          "internalType": "uint256",
          "name": "id",
          "type": "uint256"
        }
      ],
      "name": "BurnNFT",
      "type": "event"
    },
    {
      "anonymous": false,
      "inputs": [
        {
          "indexed": false,
          "internalType": "uint8",
          "name": "version",
          "type": "uint8"
        }
      ],
      "name": "Initialized",
      "type": "event"
    },
    {
      "anonymous": false,
      "inputs": [
        {
          "indexed": false,
          "internalType": "address",
          "name": "_owner",
          "type": "address"
        },
        {
          "indexed": false,
          "internalType": "uint256",
          "name": "amount",
          "type": "uint256"
        },
        {
          "indexed": false,
          "internalType": "enum NFTSPORT.TicketType",
          "name": "tipo",
          "type": "uint8"
        }
      ],
      "name": "MintBatch",
      "type": "event"
    },
    {
      "anonymous": false,
      "inputs": [
        {
          "indexed": false,
          "internalType": "address",
          "name": "creator",
          "type": "address"
        },
        {
          "indexed": false,
          "internalType": "uint256",
          "name": "id",
          "type": "uint256"
        },
        {
          "indexed": false,
          "internalType": "enum NFTSPORT.TicketType",
          "name": "tipo",
          "type": "uint8"
        }
      ],
      "name": "NewNFT",
      "type": "event"
    },
    {
      "anonymous": false,
      "inputs": [
        {
          "indexed": true,
          "internalType": "bytes32",
          "name": "role",
          "type": "bytes32"
        },
        {
          "indexed": true,
          "internalType": "bytes32",
          "name": "previousAdminRole",
          "type": "bytes32"
        },
        {
          "indexed": true,
          "internalType": "bytes32",
          "name": "newAdminRole",
          "type": "bytes32"
        }
      ],
      "name": "RoleAdminChanged",
      "type": "event"
    },
    {
      "anonymous": false,
      "inputs": [
        {
          "indexed": true,
          "internalType": "bytes32",
          "name": "role",
          "type": "bytes32"
        },
        {
          "indexed": true,
          "internalType": "address",
          "name": "account",
          "type": "address"
        },
        {
          "indexed": true,
          "internalType": "address",
          "name": "sender",
          "type": "address"
        }
      ],
      "name": "RoleGranted",
      "type": "event"
    },
    {
      "anonymous": false,
      "inputs": [
        {
          "indexed": true,
          "internalType": "bytes32",
          "name": "role",
          "type": "bytes32"
        },
        {
          "indexed": true,
          "internalType": "address",
          "name": "account",
          "type": "address"
        },
        {
          "indexed": true,
          "internalType": "address",
          "name": "sender",
          "type": "address"
        }
      ],
      "name": "RoleRevoked",
      "type": "event"
    },
    {
      "anonymous": false,
      "inputs": [
        {
          "indexed": true,
          "internalType": "address",
          "name": "from",
          "type": "address"
        },
        {
          "indexed": true,
          "internalType": "address",
          "name": "to",
          "type": "address"
        },
        {
          "indexed": true,
          "internalType": "uint256",
          "name": "tokenId",
          "type": "uint256"
        }
      ],
      "name": "Transfer",
      "type": "event"
    },
    {
      "inputs": [],
      "name": "DEFAULT_ADMIN_ROLE",
      "outputs": [
        {
          "internalType": "bytes32",
          "name": "",
          "type": "bytes32"
        }
      ],
      "stateMutability": "view",
      "type": "function"
    },
    {
      "inputs": [
        {
          "internalType": "address",
          "name": "to",
          "type": "address"
        },
        {
          "internalType": "uint256",
          "name": "tokenId",
          "type": "uint256"
        }
      ],
      "name": "approve",
      "outputs": [],
      "stateMutability": "nonpayable",
      "type": "function"
    },
    {
      "inputs": [
        {
          "internalType": "address",
          "name": "owner",
          "type": "address"
        }
      ],
      "name": "balanceOf",
      "outputs": [
        {
          "internalType": "uint256",
          "name": "",
          "type": "uint256"
        }
      ],
      "stateMutability": "view",
      "type": "function"
    },
    {
      "inputs": [
        {
          "internalType": "uint256",
          "name": "tokenId",
          "type": "uint256"
        }
      ],
      "name": "burn",
      "outputs": [],
      "stateMutability": "nonpayable",
      "type": "function"
    },
    {
      "inputs": [
        {
          "internalType": "uint256",
          "name": "tokenId",
          "type": "uint256"
        }
      ],
      "name": "burnIt",
      "outputs": [],
      "stateMutability": "nonpayable",
      "type": "function"
    },
    {
      "inputs": [
        {
          "internalType": "uint256",
          "name": "tokenId",
          "type": "uint256"
        }
      ],
      "name": "getApproved",
      "outputs": [
        {
          "internalType": "address",
          "name": "",
          "type": "address"
        }
      ],
      "stateMutability": "view",
      "type": "function"
    },
    {
      "inputs": [
        {
          "internalType": "bytes32",
          "name": "role",
          "type": "bytes32"
        }
      ],
      "name": "getRoleAdmin",
      "outputs": [
        {
          "internalType": "bytes32",
          "name": "",
          "type": "bytes32"
        }
      ],
      "stateMutability": "view",
      "type": "function"
    },
    {
      "inputs": [
        {
          "internalType": "uint256",
          "name": "tokenId",
          "type": "uint256"
        }
      ],
      "name": "getTokenData",
      "outputs": [
        {
          "components": [
            {
              "internalType": "address",
              "name": "creator",
              "type": "address"
            },
            {
              "internalType": "enum NFTSPORT.TicketType",
              "name": "tipo",
              "type": "uint8"
            }
          ],
          "internalType": "struct NFTSPORT.tokenData",
          "name": "",
          "type": "tuple"
        }
      ],
      "stateMutability": "view",
      "type": "function"
    },
    {
      "inputs": [
        {
          "internalType": "bytes32",
          "name": "role",
          "type": "bytes32"
        },
        {
          "internalType": "address",
          "name": "account",
          "type": "address"
        }
      ],
      "name": "grantRole",
      "outputs": [],
      "stateMutability": "nonpayable",
      "type": "function"
    },
    {
      "inputs": [
        {
          "internalType": "bytes32",
          "name": "role",
          "type": "bytes32"
        },
        {
          "internalType": "address",
          "name": "account",
          "type": "address"
        }
      ],
      "name": "hasRole",
      "outputs": [
        {
          "internalType": "bool",
          "name": "",
          "type": "bool"
        }
      ],
      "stateMutability": "view",
      "type": "function"
    },
    {
      "inputs": [],
      "name": "id",
      "outputs": [
        {
          "internalType": "uint256",
          "name": "",
          "type": "uint256"
        }
      ],
      "stateMutability": "view",
      "type": "function"
    },
    {
      "inputs": [],
      "name": "initialize",
      "outputs": [],
      "stateMutability": "nonpayable",
      "type": "function"
    },
    {
      "inputs": [
        {
          "internalType": "address",
          "name": "owner",
          "type": "address"
        },
        {
          "internalType": "address",
          "name": "operator",
          "type": "address"
        }
      ],
      "name": "isApprovedForAll",
      "outputs": [
        {
          "internalType": "bool",
          "name": "",
          "type": "bool"
        }
      ],
      "stateMutability": "view",
      "type": "function"
    },
    {
      "inputs": [
        {
          "internalType": "address",
          "name": "_owner",
          "type": "address"
        },
        {
          "internalType": "uint256",
          "name": "amount",
          "type": "uint256"
        },
        {
          "internalType": "enum NFTSPORT.TicketType",
          "name": "tipo",
          "type": "uint8"
        }
      ],
      "name": "mintBatch",
      "outputs": [],
      "stateMutability": "nonpayable",
      "type": "function"
    },
    {
      "inputs": [
        {
          "internalType": "address",
          "name": "_owner",
          "type": "address"
        },
        {
          "internalType": "enum NFTSPORT.TicketType",
          "name": "tipo",
          "type": "uint8"
        }
      ],
      "name": "mintNew",
      "outputs": [
        {
          "internalType": "uint256",
          "name": "",
          "type": "uint256"
        }
      ],
      "stateMutability": "nonpayable",
      "type": "function"
    },
    {
      "inputs": [],
      "name": "name",
      "outputs": [
        {
          "internalType": "string",
          "name": "",
          "type": "string"
        }
      ],
      "stateMutability": "view",
      "type": "function"
    },
    {
      "inputs": [
        {
          "internalType": "uint256",
          "name": "tokenId",
          "type": "uint256"
        }
      ],
      "name": "ownerOf",
      "outputs": [
        {
          "internalType": "address",
          "name": "",
          "type": "address"
        }
      ],
      "stateMutability": "view",
      "type": "function"
    },
    {
      "inputs": [
        {
          "internalType": "bytes32",
          "name": "role",
          "type": "bytes32"
        },
        {
          "internalType": "address",
          "name": "account",
          "type": "address"
        }
      ],
      "name": "renounceRole",
      "outputs": [],
      "stateMutability": "nonpayable",
      "type": "function"
    },
    {
      "inputs": [
        {
          "internalType": "bytes32",
          "name": "role",
          "type": "bytes32"
        },
        {
          "internalType": "address",
          "name": "account",
          "type": "address"
        }
      ],
      "name": "revokeRole",
      "outputs": [],
      "stateMutability": "nonpayable",
      "type": "function"
    },
    {
      "inputs": [
        {
          "internalType": "address",
          "name": "from",
          "type": "address"
        },
        {
          "internalType": "address",
          "name": "to",
          "type": "address"
        },
        {
          "internalType": "uint256",
          "name": "tokenId",
          "type": "uint256"
        }
      ],
      "name": "safeTransferFrom",
      "outputs": [],
      "stateMutability": "nonpayable",
      "type": "function"
    },
    {
      "inputs": [
        {
          "internalType": "address",
          "name": "from",
          "type": "address"
        },
        {
          "internalType": "address",
          "name": "to",
          "type": "address"
        },
        {
          "internalType": "uint256",
          "name": "tokenId",
          "type": "uint256"
        },
        {
          "internalType": "bytes",
          "name": "data",
          "type": "bytes"
        }
      ],
      "name": "safeTransferFrom",
      "outputs": [],
      "stateMutability": "nonpayable",
      "type": "function"
    },
    {
      "inputs": [
        {
          "internalType": "address",
          "name": "operator",
          "type": "address"
        },
        {
          "internalType": "bool",
          "name": "approved",
          "type": "bool"
        }
      ],
      "name": "setApprovalForAll",
      "outputs": [],
      "stateMutability": "nonpayable",
      "type": "function"
    },
    {
      "inputs": [
        {
          "internalType": "bytes4",
          "name": "interfaceId",
          "type": "bytes4"
        }
      ],
      "name": "supportsInterface",
      "outputs": [
        {
          "internalType": "bool",
          "name": "",
          "type": "bool"
        }
      ],
      "stateMutability": "view",
      "type": "function"
    },
    {
      "inputs": [],
      "name": "symbol",
      "outputs": [
        {
          "internalType": "string",
          "name": "",
          "type": "string"
        }
      ],
      "stateMutability": "view",
      "type": "function"
    },
    {
      "inputs": [
        {
          "internalType": "uint256",
          "name": "",
          "type": "uint256"
        }
      ],
      "name": "tokenDatas",
      "outputs": [
        {
          "internalType": "address",
          "name": "creator",
          "type": "address"
        },
        {
          "internalType": "enum NFTSPORT.TicketType",
          "name": "tipo",
          "type": "uint8"
        }
      ],
      "stateMutability": "view",
      "type": "function"
    },
    {
      "inputs": [
        {
          "internalType": "uint256",
          "name": "tokenId",
          "type": "uint256"
        }
      ],
      "name": "tokenURI",
      "outputs": [
        {
          "internalType": "string",
          "name": "",
          "type": "string"
        }
      ],
      "stateMutability": "view",
      "type": "function"
    },
    {
      "inputs": [
        {
          "internalType": "address",
          "name": "from",
          "type": "address"
        },
        {
          "internalType": "address",
          "name": "to",
          "type": "address"
        },
        {
          "internalType": "uint256",
          "name": "tokenId",
          "type": "uint256"
        }
      ],
      "name": "transferFrom",
      "outputs": [],
      "stateMutability": "nonpayable",
      "type": "function"
    }
  ],
  "transactionHash": "0xd3959cf745207ac55fb25cf0e43358af1e226ddbd3a6429d4a9bba85e0c9742a",
  "args": [],
  "numDeployments": 1,
  "solcInputHash": "856d952eb89976f4be8a98000b1cdc8f",
  "bytecode": "0x6080604052600160fb5534801561001557600080fd5b5061216f806100256000396000f3fe608060405234801561001057600080fd5b50600436106101a95760003560e01c80638129fc1c116100f9578063a5e9da1011610097578063b88d4fde11610071578063b88d4fde146103d5578063c87b56dd146103e8578063d547741f146103fb578063e985e9c51461040e57600080fd5b8063a5e9da1014610399578063af640d0f146103ac578063b09afec1146103b557600080fd5b806395d89b41116100d357806395d89b4114610363578063965dc44c1461036b578063a217fddf1461037e578063a22cb4651461038657600080fd5b80638129fc1c1461033557806391d148541461033d57806392a2d38b1461035057600080fd5b80632f2ff15d1161016657806342966c681161014057806342966c68146102b95780636352211e146102cc5780636fc37a75146102df57806370a082311461032257600080fd5b80632f2ff15d1461028057806336568abe1461029357806342842e0e146102a657600080fd5b806301ffc9a7146101ae57806306fdde03146101e7578063081812fc146101fc578063095ea7b31461022757806323b872dd1461023c578063248a9ca31461024f575b600080fd5b6101d26101bc366004611c9e565b6001600160e01b0319166301ffc9a760e01b1490565b60405190151581526020015b60405180910390f35b6101ef61044a565b6040516101de9190611e48565b61020f61020a366004611c62565b6104dc565b6040516001600160a01b0390911681526020016101de565b61023a610235366004611bfc565b610503565b005b61023a61024a366004611a7e565b61061e565b61027261025d366004611c62565b60009081526065602052604090206001015490565b6040519081526020016101de565b61023a61028e366004611c7b565b610650565b61023a6102a1366004611c7b565b610675565b61023a6102b4366004611a7e565b6106f3565b61023a6102c7366004611c62565b61070e565b61020f6102da366004611c62565b61073f565b6103146102ed366004611c62565b60fd602052600090815260409020546001600160a01b03811690600160a01b900460ff1682565b6040516101de929190611e07565b610272610330366004611a30565b6107a5565b61023a61082b565b6101d261034b366004611c7b565b6109b3565b61027261035e366004611bd2565b6109de565b6101ef610b0b565b61023a610379366004611c26565b610b1a565b610272600081565b61023a610394366004611b96565b610c52565b61023a6103a7366004611c62565b610c5d565b61027260fb5481565b6103c86103c3366004611c62565b610cbd565b6040516101de9190611fb9565b61023a6103e3366004611aba565b610d33565b6101ef6103f6366004611c62565b610d6b565b61023a610409366004611c7b565b610dde565b6101d261041c366004611a4b565b6001600160a01b039182166000908152609c6020908152604080832093909416825291909152205460ff1690565b60606097805461045990612075565b80601f016020809104026020016040519081016040528092919081815260200182805461048590612075565b80156104d25780601f106104a7576101008083540402835291602001916104d2565b820191906000526020600020905b8154815290600101906020018083116104b557829003601f168201915b5050505050905090565b60006104e782610e03565b506000908152609b60205260409020546001600160a01b031690565b600061050e8261073f565b9050806001600160a01b0316836001600160a01b031614156105815760405162461bcd60e51b815260206004820152602160248201527f4552433732313a20617070726f76616c20746f2063757272656e74206f776e656044820152603960f91b60648201526084015b60405180910390fd5b336001600160a01b038216148061059d575061059d813361041c565b61060f5760405162461bcd60e51b815260206004820152603d60248201527f4552433732313a20617070726f76652063616c6c6572206973206e6f7420746f60448201527f6b656e206f776e6572206f7220617070726f76656420666f7220616c6c0000006064820152608401610578565b6106198383610e62565b505050565b610629335b82610ed0565b6106455760405162461bcd60e51b815260040161057890611e5b565b610619838383610edc565b60008281526065602052604090206001015461066b81611040565b610619838361104a565b6001600160a01b03811633146106e55760405162461bcd60e51b815260206004820152602f60248201527f416363657373436f6e74726f6c3a2063616e206f6e6c792072656e6f756e636560448201526e103937b632b9903337b91039b2b63360891b6064820152608401610578565b6106ef82826110d0565b5050565b61061983838360405180602001604052806000815250610d33565b61071733610623565b6107335760405162461bcd60e51b815260040161057890611e5b565b61073c81611137565b50565b6000818152609960205260408120546001600160a01b03168061079f5760405162461bcd60e51b8152602060048201526018602482015277115490cdcc8c4e881a5b9d985b1a59081d1bdad95b88125160421b6044820152606401610578565b92915050565b60006001600160a01b03821661080f5760405162461bcd60e51b815260206004820152602960248201527f4552433732313a2061646472657373207a65726f206973206e6f7420612076616044820152683634b21037bbb732b960b91b6064820152608401610578565b506001600160a01b03166000908152609a602052604090205490565b600054610100900460ff161580801561084b5750600054600160ff909116105b806108655750303b158015610865575060005460ff166001145b6108c85760405162461bcd60e51b815260206004820152602e60248201527f496e697469616c697a61626c653a20636f6e747261637420697320616c72656160448201526d191e481a5b9a5d1a585b1a5e995960921b6064820152608401610578565b6000805460ff1916600117905580156108eb576000805461ff0019166101001790555b6108f66000336111cc565b61093b6040518060400160405280600881526020016713919514d413d49560c21b81525060405180604001604052806003815260200162292aa760e91b8152506111d6565b60408051808201909152600780825266697066733a2f2f60c81b60209092019182526109699160fc9161196c565b50801561073c576000805461ff0019169055604051600181527f7f26b83ff96e1f2b6a682f133852f6798a09c465da95921460cefb3847402498906020015b60405180910390a150565b60009182526065602090815260408084206001600160a01b0393909316845291905290205460ff1690565b60006109ea81336109b3565b610a065760405162461bcd60e51b815260040161057890611f3f565b610a128360fb54611207565b6040518060400160405280846001600160a01b03168152602001836001811115610a3e57610a3e6120e1565b905260fb54600090815260fd60209081526040909120825181546001600160a01b039091166001600160a01b031982168117835592840151919283916001600160a81b03191617600160a01b836001811115610a9c57610a9c6120e1565b02179055505060fb546040517fd46f6f077a3f1709fc260e025b6a6eb4076163f539eb67caa1a79284296b335c9250610ad89186918690611e24565b60405180910390a160fb8054906000610af0836120b0565b9190505550600160fb54610b04919061201b565b9392505050565b60606098805461045990612075565b610b256000336109b3565b610b415760405162461bcd60e51b815260040161057890611f3f565b60005b82811015610c1157610b588460fb54611207565b6040518060400160405280856001600160a01b03168152602001836001811115610b8457610b846120e1565b905260fb54600090815260fd60209081526040909120825181546001600160a01b039091166001600160a01b031982168117835592840151919283916001600160a81b03191617600160a01b836001811115610be257610be26120e1565b02179055505060fb805491506000610bf9836120b0565b91905055508080610c09906120b0565b915050610b44565b507f2ef69d447d7f8245dac019ea65d716e89818c7de3940dfb92011bee20882993b838383604051610c4593929190611e24565b60405180910390a1505050565b6106ef338383611392565b610c686000336109b3565b610c845760405162461bcd60e51b815260040161057890611f3f565b610c8d8161070e565b6040518181527f167dc8a03fd14ba942cfd55087be2efd90f784c864bc635fbfea2d760a129931906020016109a8565b6040805180820190915260008082526020820152600082815260fd6020908152604091829020825180840190935280546001600160a01b03811684529091830190600160a01b900460ff166001811115610d1957610d196120e1565b6001811115610d2a57610d2a6120e1565b90525092915050565b610d3d3383610ed0565b610d595760405162461bcd60e51b815260040161057890611e5b565b610d6584848484611461565b50505050565b6060610d7682610e03565b6000610d8d60408051602081019091526000815290565b90506000815111610dad5760405180602001604052806000815250610b04565b80610db784611494565b604051602001610dc8929190611d26565b6040516020818303038152906040529392505050565b600082815260656020526040902060010154610df981611040565b61061983836110d0565b6000818152609960205260409020546001600160a01b031661073c5760405162461bcd60e51b8152602060048201526018602482015277115490cdcc8c4e881a5b9d985b1a59081d1bdad95b88125160421b6044820152606401610578565b6000818152609b6020526040902080546001600160a01b0319166001600160a01b0384169081179091558190610e978261073f565b6001600160a01b03167f8c5be1e5ebec7d5bd14f71427d1e84f3dd0314c0f7b2291e5b200ac8c7c3b92560405160405180910390a45050565b6000610b0481846109b3565b826001600160a01b0316610eef8261073f565b6001600160a01b031614610f155760405162461bcd60e51b815260040161057890611efa565b6001600160a01b038216610f775760405162461bcd60e51b8152602060048201526024808201527f4552433732313a207472616e7366657220746f20746865207a65726f206164646044820152637265737360e01b6064820152608401610578565b826001600160a01b0316610f8a8261073f565b6001600160a01b031614610fb05760405162461bcd60e51b815260040161057890611efa565b6000818152609b6020908152604080832080546001600160a01b03199081169091556001600160a01b03878116808652609a8552838620805460001901905590871680865283862080546001019055868652609990945282852080549092168417909155905184937fddf252ad1be2c89b69c2b068fc378daa952ba7f163c4a11628f55a4df523b3ef91a4505050565b61073c8133611531565b61105482826109b3565b6106ef5760008281526065602090815260408083206001600160a01b03851684529091529020805460ff1916600117905561108c3390565b6001600160a01b0316816001600160a01b0316837f2f8788117e7eff1d82e926ec794901d17c78024a50270940304540a733656f0d60405160405180910390a45050565b6110da82826109b3565b156106ef5760008281526065602090815260408083206001600160a01b0385168085529252808320805460ff1916905551339285917ff6391f5c32d9c69d2a47ea670b442974b53935d1edc7fd64eb21e047a839171b9190a45050565b60006111428261073f565b905061114d8261073f565b6000838152609b6020908152604080832080546001600160a01b03199081169091556001600160a01b038516808552609a845282852080546000190190558785526099909352818420805490911690555192935084927fddf252ad1be2c89b69c2b068fc378daa952ba7f163c4a11628f55a4df523b3ef908390a45050565b6106ef828261104a565b600054610100900460ff166111fd5760405162461bcd60e51b815260040161057890611f6e565b6106ef828261158a565b6001600160a01b03821661125d5760405162461bcd60e51b815260206004820181905260248201527f4552433732313a206d696e7420746f20746865207a65726f20616464726573736044820152606401610578565b6000818152609960205260409020546001600160a01b0316156112c25760405162461bcd60e51b815260206004820152601c60248201527f4552433732313a20746f6b656e20616c7265616479206d696e746564000000006044820152606401610578565b6000818152609960205260409020546001600160a01b0316156113275760405162461bcd60e51b815260206004820152601c60248201527f4552433732313a20746f6b656e20616c7265616479206d696e746564000000006044820152606401610578565b6001600160a01b0382166000818152609a6020908152604080832080546001019055848352609990915280822080546001600160a01b0319168417905551839291907fddf252ad1be2c89b69c2b068fc378daa952ba7f163c4a11628f55a4df523b3ef908290a45050565b816001600160a01b0316836001600160a01b031614156113f45760405162461bcd60e51b815260206004820152601960248201527f4552433732313a20617070726f766520746f2063616c6c6572000000000000006044820152606401610578565b6001600160a01b038381166000818152609c6020908152604080832094871680845294825291829020805460ff191686151590811790915591519182527f17307eab39ab6107e8899845ad3d59bd9653f200f220920489ca2b5937696c31910160405180910390a3505050565b61146c848484610edc565b611478848484846115d8565b610d655760405162461bcd60e51b815260040161057890611ea8565b606060006114a1836116e6565b600101905060008167ffffffffffffffff8111156114c1576114c161210d565b6040519080825280601f01601f1916602001820160405280156114eb576020820181803683370190505b5090508181016020015b600019016f181899199a1a9b1b9c1cb0b131b232b360811b600a86061a8153600a850494508461152457611529565b6114f5565b509392505050565b61153b82826109b3565b6106ef57611548816117be565b6115538360206117d0565b604051602001611564929190611d55565b60408051601f198184030181529082905262461bcd60e51b825261057891600401611e48565b600054610100900460ff166115b15760405162461bcd60e51b815260040161057890611f6e565b81516115c490609790602085019061196c565b50805161061990609890602084019061196c565b60006001600160a01b0384163b156116da57604051630a85bd0160e11b81526001600160a01b0385169063150b7a029061161c903390899088908890600401611dca565b602060405180830381600087803b15801561163657600080fd5b505af1925050508015611666575060408051601f3d908101601f1916820190925261166391810190611cbb565b60015b6116c0573d808015611694576040519150601f19603f3d011682016040523d82523d6000602084013e611699565b606091505b5080516116b85760405162461bcd60e51b815260040161057890611ea8565b805181602001fd5b6001600160e01b031916630a85bd0160e11b1490506116de565b5060015b949350505050565b60008072184f03e93ff9f4daa797ed6e38ed64bf6a1f0160401b83106117255772184f03e93ff9f4daa797ed6e38ed64bf6a1f0160401b830492506040015b6d04ee2d6d415b85acef81000000008310611751576d04ee2d6d415b85acef8100000000830492506020015b662386f26fc10000831061176f57662386f26fc10000830492506010015b6305f5e1008310611787576305f5e100830492506008015b612710831061179b57612710830492506004015b606483106117ad576064830492506002015b600a831061079f5760010192915050565b606061079f6001600160a01b03831660145b606060006117df836002611ffc565b6117ea906002611fe4565b67ffffffffffffffff8111156118025761180261210d565b6040519080825280601f01601f19166020018201604052801561182c576020820181803683370190505b509050600360fc1b81600081518110611847576118476120f7565b60200101906001600160f81b031916908160001a905350600f60fb1b81600181518110611876576118766120f7565b60200101906001600160f81b031916908160001a905350600061189a846002611ffc565b6118a5906001611fe4565b90505b600181111561191d576f181899199a1a9b1b9c1cb0b131b232b360811b85600f16601081106118d9576118d96120f7565b1a60f81b8282815181106118ef576118ef6120f7565b60200101906001600160f81b031916908160001a90535060049490941c936119168161205e565b90506118a8565b508315610b045760405162461bcd60e51b815260206004820181905260248201527f537472696e67733a20686578206c656e67746820696e73756666696369656e746044820152606401610578565b82805461197890612075565b90600052602060002090601f01602090048101928261199a57600085556119e0565b82601f106119b357805160ff19168380011785556119e0565b828001600101855582156119e0579182015b828111156119e05782518255916020019190600101906119c5565b506119ec9291506119f0565b5090565b5b808211156119ec57600081556001016119f1565b80356001600160a01b0381168114611a1c57600080fd5b919050565b803560028110611a1c57600080fd5b600060208284031215611a4257600080fd5b610b0482611a05565b60008060408385031215611a5e57600080fd5b611a6783611a05565b9150611a7560208401611a05565b90509250929050565b600080600060608486031215611a9357600080fd5b611a9c84611a05565b9250611aaa60208501611a05565b9150604084013590509250925092565b60008060008060808587031215611ad057600080fd5b611ad985611a05565b9350611ae760208601611a05565b925060408501359150606085013567ffffffffffffffff80821115611b0b57600080fd5b818701915087601f830112611b1f57600080fd5b813581811115611b3157611b3161210d565b604051601f8201601f19908116603f01168101908382118183101715611b5957611b5961210d565b816040528281528a6020848701011115611b7257600080fd5b82602086016020830137600060208483010152809550505050505092959194509250565b60008060408385031215611ba957600080fd5b611bb283611a05565b915060208301358015158114611bc757600080fd5b809150509250929050565b60008060408385031215611be557600080fd5b611bee83611a05565b9150611a7560208401611a21565b60008060408385031215611c0f57600080fd5b611c1883611a05565b946020939093013593505050565b600080600060608486031215611c3b57600080fd5b611c4484611a05565b925060208401359150611c5960408501611a21565b90509250925092565b600060208284031215611c7457600080fd5b5035919050565b60008060408385031215611c8e57600080fd5b82359150611a7560208401611a05565b600060208284031215611cb057600080fd5b8135610b0481612123565b600060208284031215611ccd57600080fd5b8151610b0481612123565b60008151808452611cf0816020860160208601612032565b601f01601f19169290920160200192915050565b60028110611d2257634e487b7160e01b600052602160045260246000fd5b9052565b60008351611d38818460208801612032565b835190830190611d4c818360208801612032565b01949350505050565b7f416363657373436f6e74726f6c3a206163636f756e7420000000000000000000815260008351611d8d816017850160208801612032565b7001034b99036b4b9b9b4b733903937b6329607d1b6017918401918201528351611dbe816028840160208801612032565b01602801949350505050565b6001600160a01b0385811682528416602082015260408101839052608060608201819052600090611dfd90830184611cd8565b9695505050505050565b6001600160a01b038316815260408101610b046020830184611d04565b6001600160a01b038416815260208101839052606081016116de6040830184611d04565b602081526000610b046020830184611cd8565b6020808252602d908201527f4552433732313a2063616c6c6572206973206e6f7420746f6b656e206f776e6560408201526c1c881bdc88185c1c1c9bdd9959609a1b606082015260800190565b60208082526032908201527f4552433732313a207472616e7366657220746f206e6f6e20455243373231526560408201527131b2b4bb32b91034b6b83632b6b2b73a32b960711b606082015260800190565b60208082526025908201527f4552433732313a207472616e736665722066726f6d20696e636f72726563742060408201526437bbb732b960d91b606082015260800190565b6020808252601590820152744f6e6c79206f776e65722063616e2061636365737360581b604082015260600190565b6020808252602b908201527f496e697469616c697a61626c653a20636f6e7472616374206973206e6f74206960408201526a6e697469616c697a696e6760a81b606082015260800190565b81516001600160a01b031681526020808301516040830191611fdd90840182611d04565b5092915050565b60008219821115611ff757611ff76120cb565b500190565b6000816000190483118215151615612016576120166120cb565b500290565b60008282101561202d5761202d6120cb565b500390565b60005b8381101561204d578181015183820152602001612035565b83811115610d655750506000910152565b60008161206d5761206d6120cb565b506000190190565b600181811c9082168061208957607f821691505b602082108114156120aa57634e487b7160e01b600052602260045260246000fd5b50919050565b60006000198214156120c4576120c46120cb565b5060010190565b634e487b7160e01b600052601160045260246000fd5b634e487b7160e01b600052602160045260246000fd5b634e487b7160e01b600052603260045260246000fd5b634e487b7160e01b600052604160045260246000fd5b6001600160e01b03198116811461073c57600080fdfea2646970667358221220d59a355e202bfce480061f3578be83b9e4be81de4c45776f04f30906f0c2f97764736f6c63430008070033",
  "devdoc": {
    "kind": "dev",
    "methods": {
      "approve(address,uint256)": {
        "details": "See {IERC721-approve}."
      },
      "balanceOf(address)": {
        "details": "See {IERC721-balanceOf}."
      },
      "burn(uint256)": {
        "details": "Burns `tokenId`. See {ERC721-_burn}. Requirements: - The caller must own `tokenId` or be an approved operator."
      },
      "getApproved(uint256)": {
        "details": "See {IERC721-getApproved}."
      },
      "getRoleAdmin(bytes32)": {
        "details": "Returns the admin role that controls `role`. See {grantRole} and {revokeRole}. To change a role's admin, use {_setRoleAdmin}."
      },
      "grantRole(bytes32,address)": {
        "details": "Grants `role` to `account`. If `account` had not been already granted `role`, emits a {RoleGranted} event. Requirements: - the caller must have ``role``'s admin role. May emit a {RoleGranted} event."
      },
      "hasRole(bytes32,address)": {
        "details": "Returns `true` if `account` has been granted `role`."
      },
      "isApprovedForAll(address,address)": {
        "details": "See {IERC721-isApprovedForAll}."
      },
      "mintNew(address,uint8)": {
        "details": "user creates new NFTs"
      },
      "name()": {
        "details": "See {IERC721Metadata-name}."
      },
      "ownerOf(uint256)": {
        "details": "See {IERC721-ownerOf}."
      },
      "renounceRole(bytes32,address)": {
        "details": "Revokes `role` from the calling account. Roles are often managed via {grantRole} and {revokeRole}: this function's purpose is to provide a mechanism for accounts to lose their privileges if they are compromised (such as when a trusted device is misplaced). If the calling account had been revoked `role`, emits a {RoleRevoked} event. Requirements: - the caller must be `account`. May emit a {RoleRevoked} event."
      },
      "revokeRole(bytes32,address)": {
        "details": "Revokes `role` from `account`. If `account` had been granted `role`, emits a {RoleRevoked} event. Requirements: - the caller must have ``role``'s admin role. May emit a {RoleRevoked} event."
      },
      "safeTransferFrom(address,address,uint256)": {
        "details": "See {IERC721-safeTransferFrom}."
      },
      "safeTransferFrom(address,address,uint256,bytes)": {
        "details": "See {IERC721-safeTransferFrom}."
      },
      "setApprovalForAll(address,bool)": {
        "details": "See {IERC721-setApprovalForAll}."
      },
      "supportsInterface(bytes4)": {
        "details": "See {IERC165-supportsInterface}."
      },
      "symbol()": {
        "details": "See {IERC721Metadata-symbol}."
      },
      "tokenURI(uint256)": {
        "details": "See {IERC721Metadata-tokenURI}."
      },
      "transferFrom(address,address,uint256)": {
        "details": "See {IERC721-transferFrom}."
      }
    },
    "version": 1
  },
  "userdoc": {
    "kind": "user",
    "methods": {
      "burnIt(uint256)": {
        "notice": "Hay que alterar esta funcion llamada _isApprovedOrOwner en ERC721Upgradeable.sol y ERC721BurnableUpgradeable y agregar esto al require \"|| hasRole(DEFAULT_ADMIN_ROLE, msg.sender)\" para permitir al owner transferir de un usuario a otro sin aprobacion"
      }
    },
    "notice": "Al nodemodule ERC721Upgradeable, heredarle AccessControl!! ",
    "version": 1
  },
  "storageLayout": {
    "storage": [
      {
        "astId": 393,
        "contract": "contracts/NFTSPORT.sol:NFTSPORT",
        "label": "_initialized",
        "offset": 0,
        "slot": "0",
        "type": "t_uint8"
      },
      {
        "astId": 396,
        "contract": "contracts/NFTSPORT.sol:NFTSPORT",
        "label": "_initializing",
        "offset": 1,
        "slot": "0",
        "type": "t_bool"
      },
      {
        "astId": 2044,
        "contract": "contracts/NFTSPORT.sol:NFTSPORT",
        "label": "__gap",
        "offset": 0,
        "slot": "1",
        "type": "t_array(t_uint256)50_storage"
      },
      {
        "astId": 2317,
        "contract": "contracts/NFTSPORT.sol:NFTSPORT",
        "label": "__gap",
        "offset": 0,
        "slot": "51",
        "type": "t_array(t_uint256)50_storage"
      },
      {
        "astId": 39,
        "contract": "contracts/NFTSPORT.sol:NFTSPORT",
        "label": "_roles",
        "offset": 0,
        "slot": "101",
        "type": "t_mapping(t_bytes32,t_struct(RoleData)34_storage)"
      },
      {
        "astId": 312,
        "contract": "contracts/NFTSPORT.sol:NFTSPORT",
        "label": "__gap",
        "offset": 0,
        "slot": "102",
        "type": "t_array(t_uint256)49_storage"
      },
      {
        "astId": 587,
        "contract": "contracts/NFTSPORT.sol:NFTSPORT",
        "label": "_name",
        "offset": 0,
        "slot": "151",
        "type": "t_string_storage"
      },
      {
        "astId": 589,
        "contract": "contracts/NFTSPORT.sol:NFTSPORT",
        "label": "_symbol",
        "offset": 0,
        "slot": "152",
        "type": "t_string_storage"
      },
      {
        "astId": 593,
        "contract": "contracts/NFTSPORT.sol:NFTSPORT",
        "label": "_owners",
        "offset": 0,
        "slot": "153",
        "type": "t_mapping(t_uint256,t_address)"
      },
      {
        "astId": 597,
        "contract": "contracts/NFTSPORT.sol:NFTSPORT",
        "label": "_balances",
        "offset": 0,
        "slot": "154",
        "type": "t_mapping(t_address,t_uint256)"
      },
      {
        "astId": 601,
        "contract": "contracts/NFTSPORT.sol:NFTSPORT",
        "label": "_tokenApprovals",
        "offset": 0,
        "slot": "155",
        "type": "t_mapping(t_uint256,t_address)"
      },
      {
        "astId": 607,
        "contract": "contracts/NFTSPORT.sol:NFTSPORT",
        "label": "_operatorApprovals",
        "offset": 0,
        "slot": "156",
        "type": "t_mapping(t_address,t_mapping(t_address,t_bool))"
      },
      {
        "astId": 1461,
        "contract": "contracts/NFTSPORT.sol:NFTSPORT",
        "label": "__gap",
        "offset": 0,
        "slot": "157",
        "type": "t_array(t_uint256)44_storage"
      },
      {
        "astId": 1645,
        "contract": "contracts/NFTSPORT.sol:NFTSPORT",
        "label": "__gap",
        "offset": 0,
        "slot": "201",
        "type": "t_array(t_uint256)50_storage"
      },
      {
        "astId": 3310,
        "contract": "contracts/NFTSPORT.sol:NFTSPORT",
        "label": "id",
        "offset": 0,
        "slot": "251",
        "type": "t_uint256"
      },
      {
        "astId": 3312,
        "contract": "contracts/NFTSPORT.sol:NFTSPORT",
        "label": "_baseUri",
        "offset": 0,
        "slot": "252",
        "type": "t_string_storage"
      },
      {
        "astId": 3326,
        "contract": "contracts/NFTSPORT.sol:NFTSPORT",
        "label": "tokenDatas",
        "offset": 0,
        "slot": "253",
        "type": "t_mapping(t_uint256,t_struct(tokenData)3318_storage)"
      }
    ],
    "types": {
      "t_address": {
        "encoding": "inplace",
        "label": "address",
        "numberOfBytes": "20"
      },
      "t_array(t_uint256)44_storage": {
        "base": "t_uint256",
        "encoding": "inplace",
        "label": "uint256[44]",
        "numberOfBytes": "1408"
      },
      "t_array(t_uint256)49_storage": {
        "base": "t_uint256",
        "encoding": "inplace",
        "label": "uint256[49]",
        "numberOfBytes": "1568"
      },
      "t_array(t_uint256)50_storage": {
        "base": "t_uint256",
        "encoding": "inplace",
        "label": "uint256[50]",
        "numberOfBytes": "1600"
      },
      "t_bool": {
        "encoding": "inplace",
        "label": "bool",
        "numberOfBytes": "1"
      },
      "t_bytes32": {
        "encoding": "inplace",
        "label": "bytes32",
        "numberOfBytes": "32"
      },
      "t_enum(TicketType)3321": {
        "encoding": "inplace",
        "label": "enum NFTSPORT.TicketType",
        "numberOfBytes": "1"
      },
      "t_mapping(t_address,t_bool)": {
        "encoding": "mapping",
        "key": "t_address",
        "label": "mapping(address => bool)",
        "numberOfBytes": "32",
        "value": "t_bool"
      },
      "t_mapping(t_address,t_mapping(t_address,t_bool))": {
        "encoding": "mapping",
        "key": "t_address",
        "label": "mapping(address => mapping(address => bool))",
        "numberOfBytes": "32",
        "value": "t_mapping(t_address,t_bool)"
      },
      "t_mapping(t_address,t_uint256)": {
        "encoding": "mapping",
        "key": "t_address",
        "label": "mapping(address => uint256)",
        "numberOfBytes": "32",
        "value": "t_uint256"
      },
      "t_mapping(t_bytes32,t_struct(RoleData)34_storage)": {
        "encoding": "mapping",
        "key": "t_bytes32",
        "label": "mapping(bytes32 => struct AccessControlUpgradeable.RoleData)",
        "numberOfBytes": "32",
        "value": "t_struct(RoleData)34_storage"
      },
      "t_mapping(t_uint256,t_address)": {
        "encoding": "mapping",
        "key": "t_uint256",
        "label": "mapping(uint256 => address)",
        "numberOfBytes": "32",
        "value": "t_address"
      },
      "t_mapping(t_uint256,t_struct(tokenData)3318_storage)": {
        "encoding": "mapping",
        "key": "t_uint256",
        "label": "mapping(uint256 => struct NFTSPORT.tokenData)",
        "numberOfBytes": "32",
        "value": "t_struct(tokenData)3318_storage"
      },
      "t_string_storage": {
        "encoding": "bytes",
        "label": "string",
        "numberOfBytes": "32"
      },
      "t_struct(RoleData)34_storage": {
        "encoding": "inplace",
        "label": "struct AccessControlUpgradeable.RoleData",
        "members": [
          {
            "astId": 31,
            "contract": "contracts/NFTSPORT.sol:NFTSPORT",
            "label": "members",
            "offset": 0,
            "slot": "0",
            "type": "t_mapping(t_address,t_bool)"
          },
          {
            "astId": 33,
            "contract": "contracts/NFTSPORT.sol:NFTSPORT",
            "label": "adminRole",
            "offset": 0,
            "slot": "1",
            "type": "t_bytes32"
          }
        ],
        "numberOfBytes": "64"
      },
      "t_struct(tokenData)3318_storage": {
        "encoding": "inplace",
        "label": "struct NFTSPORT.tokenData",
        "members": [
          {
            "astId": 3314,
            "contract": "contracts/NFTSPORT.sol:NFTSPORT",
            "label": "creator",
            "offset": 0,
            "slot": "0",
            "type": "t_address"
          },
          {
            "astId": 3317,
            "contract": "contracts/NFTSPORT.sol:NFTSPORT",
            "label": "tipo",
            "offset": 20,
            "slot": "0",
            "type": "t_enum(TicketType)3321"
          }
        ],
        "numberOfBytes": "32"
      },
      "t_uint256": {
        "encoding": "inplace",
        "label": "uint256",
        "numberOfBytes": "32"
      },
      "t_uint8": {
        "encoding": "inplace",
        "label": "uint8",
        "numberOfBytes": "1"
      }
    }
  }
}